:020000041005E5
:101800000060002061930510F18505106D670510DB
:10181000AA5555AA45554C420000000000000000A2
:101820000000000000000000000000006DAB05108B
:1018300000000000000000007D8B0510DDB10510E8
:101840000D4C0510D98605100000000000000000B6
:10185000E5B505106BAB0510292F051071B7051004
:101860000000000000000000000000000000000078
:1018700000000000F1210510716705106F67051069
:1018800000000000B7800510B9800510BB8005106E
:10189000BD800510819305100987051039370510A3
:1018A0000000000000000000000000000000000038
:1018B0000000000000000000000000000000000028
:1018C000EFF31482EFF309811C4880F31488BFF30F
:1018D0006F8FF0B543464C4655465E466746F8B4B2
:1018E000174CEFF30883236006B4164C2068164C9F
:1018F0002060164C2068164C2060164C2068164C50
:101900002060164C276800202060BFF34F8F30BF47
:1019100027600B4C246884F3088882B003BCF8BCB1
:101920009846A146AA46B346BC46F0BC04BC80F328
:10193000098881F31488BFF36F8F104700000000FF
:101940000800002004ED00E0EC02002024ED00E09F
:10195000F002002000E200E0F40200200800204035
:101960000348854600F0F6FB00480047F5120610D4
:101970000060002030B50B460146002020220124E3
:1019800009E00D46D5409D4205D31D469540491BB3
:101990002546954040191546521E002DF1DC30BDFC
:1019A00070B500242546002801DA012440420029B0
:1019B00001DA01254942FFF7DDFFAC4200D0404289
:1019C000002C00D0494270BD10B5441A0346944221
:1019D00009D28318891803E0491E0C785B1E1C701D
:1019E000521EF9D210BD0C460443A40703D009E0EF
:1019F00010C9121F10C3042AFAD203E00C781C701D
:101A0000491C5B1C521EF9D210BDD2B201E002701B
:101A1000401C491EFBD270470022F6E710B5134662
:101A20000A4604461946FFF7F0FF204610BD30B5C0
:101A300004460020034600E05B1C934203D2E05CB6
:101A4000CD5C401BF8D030BD30B5054600200346C4
:101A500000E05B1C934205D2EC5CC85C201A01D10B
:101A6000002CF6D130BD0321001D401E0378120268
:101A70001A43491EF9D510467047024670B54A40D0
:101A8000D30FDB0740002DD04A002AD0010E140EE0
:101A9000000212020919400A520A8418E50104469C
:101AA0005443000A120A2E045043A4194219200C70
:101AB000C543AA18120C0125AD03521C5219120479
:101AC0007F39240400D0521C104301D44000491E29
:101AD000C2B20C06C0092018401C4008802A02D05F
:101AE00003E0002070BD40084000002900DA00201B
:101AF000184370BD70B502464A40D50F40004A00F9
:101B0000ED0740085208002814D0002A12D0C40D56
:101B1000D30D41020120C0055202490A520AE41ABB
:101B2000091812187D34914201D3641C00E0490069
:101B3000002C01DA002070BD0023914201D3891AE4
:101B40000343400849000028F7D100290AD09142F8
:101B500002D10121C90705E0914201D2012101E032
:101B60000121C943E005C018401900F0A6F970BD75
:101B7000F0B507460846584087B0C00F04904800AB
:101B80000E46590040084908BC1A884105D238461B
:101B900031461E4617460B46024658004008104381
:101BA0004CD0300D039040055900400D490D059073
:101BB000401A0290402872DA18030121000B09052F
:101BC0000843019004980092002805D001995242E0
:101BD0000020884100920190029840210A1A019940
:101BE000009800F047F905460C466B4607CB00F01D
:101BF00051F9C0197141039A0E0D0023D7175640B1
:101C00001A467A40164344D0049A002A2DD0029AEC
:101C1000012A039A15DC1205C01A914101263605E6
:101C2000001C7141D20F059ED207009301920296CB
:101C30002A46234600F08FF907B0F0BD38463146FA
:101C4000FAE71605224A0F46B218C01AB741012119
:101C50000905001C4F4100187F41114618187941B1
:101C6000E20F10436D19644113E0E2076D0815435C
:101C70006408C2071443039A01261205C01A914151
:101C80003605001C7141CE07400830434908C01892
:101C900051412A46234600F051F9CDE7FFE7049869
:101CA00001224000C117121A00238B4104983146CB
:101CB000C417381AA141EEE730B40124E4076340A9
:101CC00030BC55E730B40124E407614030BC4FE735
:101CD0000000E0FFF0B51FB488B00B99099800240C
:101CE00048400999C00F490049080991C0070B995C
:101CF0000090490049080B9109990898A6460843A5
:101D00001CD00B990A98084318D009980124400068
:101D1000420D4800410D099824050003000B2043A3
:101D200009900B980003000B20430B9050181C499E
:101D30004018002201901446104605E0002001469C
:101D40000DB0F0BD032801DA034600E003239C46F2
:101D5000C11A0AAE0AE05F0008ADED5B4F00F75B09
:101D60007D430027AA187C41491C5B1E6145F2DDBA
:101D7000410004AB5A522104120C0A43240C401CAB
:101D80000828DFDB019802900099704601910090CD
:101D9000059B049A0799069800F0DDF8D0E700004B
:101DA0000DFCFFFFC217C10F504010B54018CA0705
:101DB0009623002100F089F810BDC20F41004002B7
:101DC0000123400ADB05D207090EC0187F2901DA7A
:101DD00000207047962903DC9623591AC84001E079
:101DE00096398840002AF4D040427047C20FD2078B
:101DF000400040080BD0C10D0723DB01C918400289
:101E00000905400A1143C2084007114370470020EA
:101E100001467047F0B51FB40646002082B0054663
:101E20004024019100901BE0019922460F46304664
:101E300000F0A2F9049A059B801A994110D310462C
:101E40001946224600F016F8361A8F4101972246AD
:101E500001200021009F00F00DF838184D4100903E
:101E60002046641E0028DFDC019B0098294632468C
:101E700007B0F0BD10B5202A04DB0146203A91409E
:101E8000002010BD914020239C1A0346E3401943D3
:101E9000904010BD10B5202A06DBCB170846203A2B
:101EA0001041C1170B4306E00B461341D0402024DC
:101EB000A21A91400843194610BD002904DA401CBB
:101EC000490001D140084000704770B40024050C5F
:101ED00005D11024000402D1002921D01124050EBF
:101EE00001D100020834050F01D10001241D850F26
:101EF00001D18000A41C002801DB4000641C0029E3
:101F000008D020252E1B0D46F540A14000D0012110
:101F10002943084301061B1B000ADB1D02D50020D4
:101F200070BC7047DB05181880180029F8DA401CCF
:101F30004900F5D170BC40084000704710B5002B37
:101F400008DA0024401C614192185B411A4301D118
:101F50004008400010BDF0B51FB482B005460C002B
:101F600003D0084609F0D4FE02E009F0D1FE20308B
:101F70000246009021462846FFF77CFF049B059A05
:101F800004460F4618431143084314D01846104323
:101F90001BD0009840210A1A1846059900F0ECF869
:101FA00005460E46009A05990498FFF763FF08431B
:101FB00005D0012004E02046394607B0F0BD0020DE
:101FC000C11705430E432C43374300990E98630510
:101FD000401A7905E40A00220C43FD0A0A3002D5B2
:101FE00000200146E9E70105101969410C9C0D9D8F
:101FF00000196941FFF7A2FFDFE70000F0B50C46CA
:102000005C4085B0E40FE40703944C0000266408AC
:1020100059009446490802460296224321D062465E
:102020000A431ED06200570D4A000E032303550DCC
:10203000012402462C492405781B1B0B360B401843
:1020400023432643614600901C46501AB44103D3F3
:102050000098401C009002E0921800985B41002814
:1020600003DA0020014605B0F0BD0020012109057A
:102070000746864611E064461D46141BB54106D34B
:102080006546521BB341744607430C43A646CD0731
:1020900040084908284392185B4105460D43EAD1A0
:1020A0001046184313D0604619465040714008430B
:1020B00006D06046101AB34106D20122002306E082
:1020C00000220123DB0702E00122D24353100098D3
:1020D00074460105381C6141029C039D0019694149
:1020E000FFF72CFFBFE70000FD0300004A000903D3
:1020F0000123090B1B0519430A4B10B5520D9A42D7
:1021000002DA0020014610BD064B34339A4203DC4C
:102110009A1A00F031F810BD034BD218FFF7AAFE4F
:1021200010BD0000FF030000CDFBFFFF10B500292C
:1021300004DB0124E40740428C412146002B04DBF0
:102140001C460123DB075242A341994200D1904231
:1021500010BD0000064C0125064E05E0E36807CCE3
:102160002B430C3C98471034B442F7D3FFF7FCFBE9
:10217000943706102438061010B5202A04DB0846D0
:10218000203AD040002110BD0B46D340D04020243F
:10219000A21A91400843194610BD70B58C180578F5
:1021A000401C6B075B0F01D10378401C2A1106D13C
:1021B0000278401C03E006780E70401C491C5B1E30
:1021C000F9D12B0705D40023521E0DD40B70491CE6
:1021D000FAE70378401CCB1A921C03E01D780D70BF
:1021E000491C5B1C521EF9D5A142D8D3002070BDFA
:1021F00070470000F8B50A2001F086FA444841789B
:1022000000297DD0C068C0077AD0032100200FF0DC
:1022100011F8032100200EF0E4FE3D4806211430A1
:10222000FFF7FAFB3A49002014310EF07DFE384DDD
:1022300000201435285EFFF7B5FD364E3146FFF716
:102240001CFC354F3946FFF755FC344C206002200A
:10225000285EFFF7A7FD3146FFF70FFC3946FFF771
:1022600049FC60600420285EFFF79CFD3146FFF7C3
:1022700004FC3946FFF73EFCA0600621A81DFFF7CD
:10228000CBFBA91D00200EF06EFEAD1D0020285EC8
:10229000FFF788FD2249FFF7F0FB26460C36306039
:1022A00000900220285EFFF77DFD1D49FFF7E5FB4A
:1022B000074670600420285EFFF774FD1849FFF799
:1022C000DCFBB06006462068FFF777FD2546183531
:1022D00028606068FFF771FD6860A068FFF76DFD1A
:1022E000A8600098FFF769FD243420603846FFF7A6
:1022F00064FD60603046FFF760FDA060022000E0F2
:1023000005E00AF0C1FA2146284600F089F8F8BD38
:10231000000300200000744200007A449C03002067
:1023200000008C427FB505469868012202739A68C6
:102330001C4651739868022202A90E3006F0DCF99F
:10234000A16805200D74E0807FBD70B50646088841
:102350001D460C46001D81B213460222304606F08F
:1023600033FB21882B46891C2180091D89B202225A
:10237000304606F029FB2088801C208070BDFEB509
:1023800000240E462746056845E028680290A968A3
:10239000022230460D3106F0AFF93088B84209D03C
:1023A00087B2384603F078F8014601AA384603F0B0
:1023B000EFFE019CA968022268460F3106F09CF9E5
:1023C000E888401F81B22220005D002806D0012845
:1023D0000BD0002811D0012814D01BE0E08B6A46F6
:1023E0001288401E904206D307E0208C6A4612886D
:1023F000401E904206D20720FEBD6846008808189D
:10240000E18B03E0684600880818218C884201D9D6
:102410000D20FEBD029D002DB7D100203080FEBDF5
:102420007CB50C46064601682BA009F061FC0CF057
:10243000A5FC324D28700CF0A1FC000A68703078C1
:10244000A87030880A210012E87030792871B088AD
:1024500000126871307AA87130890012E871206822
:10246000FFF79EFA064620600A216068FFF798FA97
:1024700060600A21A068FFF793FAA0602E7220889E
:102480002946001268722079A872A0886A46001254
:10249000E872207A28732089001268730020A873DC
:1024A000E8730090897811702946C978517090803E
:1024B000009801900421515E11A009F019FC01203F
:1024C00001F022F913480095418814230022008866
:1024D0000AF0FAFD7CBD00002121212121212121CA
:1024E00021212121616363656C65726174696F6E7E
:1024F0002078203D2025640D0A000000F005002012
:10250000627566665F745F64617461203D20256456
:102510000D0A000020030020FFB5C8880025401EDA
:1025200083B00E4687B2012427E0B068022208304B
:1025300001196846091D06F0DFF86846008802F0B8
:10254000ABFF01001DD068460A8D0088824212D080
:1025500001AA03F01DFE00280DD101992620405C40
:10256000400708D506986A00101802221C3106F0B0
:10257000C3F86D1CADB2A41CA4B2BC42D5D30C9858
:10258000058007B0F0BDFFB5074683B0002000907E
:102590000D9802F081FF054606980C300190002D41
:1025A00026D00837BD4223D0288D0E9988421FD8E7
:1025B0000D99884213D30E99884210D829460222D9
:1025C0002A31019806F098F810220C99069806F026
:1025D0008FF8002809D0298D0E98814208D02E4608
:1025E0002C6A2036B442DDD03EE0059800210180FF
:1025F00007B0F0BDA08B0D99884234D30E99884264
:1026000034D8204620300290C078012808D02046D7
:10261000083010220C9906F06BF8002808D022E050
:10262000214602220831019806F066F80698F0E784
:1026300002988079400716D50098002801D1E08BD8
:102640000090E18B814211D105980222008841005F
:102650000498081821461C3106F04EF80598059993
:102660000088401C08802468B442C3D12D6899E7D3
:1026700006480021026805204002101801734173CA
:1026800003218173C173002070470000780300208C
:1026900070B50D4D044611212868C90140189026D7
:1026A00001231A46C06F31460AF01CFA010003D01C
:1026B00030464C600AF002FA0520296840020918E9
:1026C000087B401C087370BD7803002010B50446D9
:1026D00000202082A074A168A16161612060204671
:1026E00005F0F0F8452801D0412010BDA088032155
:1026F0000CF07CFB04460DF0A3F8002812D072B653
:102700000948012201684F20400109184879A24078
:102710001043487162B600200FF008FB002801D07A
:102720000BF0AEF9002010BD7803002070B5C17C1D
:102730000E4D4906490EC174044611212868C9018D
:102740004018902601230022C06F31460AF0CAF9D2
:10275000010003D030464C600AF0B0F9052029682A
:1027600040020918487B401C487370BD7803002064
:10277000F0B538A00FC897B006AC0FC439A00FC889
:102780000FC43CA00FC80FC43EA00FC80FC4102236
:1027900006A9404805F0B0FF3F4C092301223D49FE
:1027A000022000940AF019FB002845D13948102274
:1027B0000AA9103005F0A0FF10250026A01C012753
:1027C000344A0095039502960497019605901423C8
:1027D0001032022120880AF0E1FA00282CD12D487D
:1027E00010220EA9103005F087FF201D05900C2047
:1027F000284A0297049703950196009014231032FB
:10280000022120880AF0CAFA002815D12148102296
:1028100012A9103005F070FFA01D1E4A0095039507
:102820000296049701960590142310320221208805
:102830000AF0B4FA002805D018A009F059FA472088
:1028400017B0F0BDA28861881DA009F051FA0020E0
:10285000F6E70000669A0C200008969EE2119EB1F1
:10286000E0F273D9669A0C200008969EE2119EB1A0
:10287000E1F273D9669A0C200008969EE2119EB18F
:10288000E2F273D9669A0C200008969EE2119EB17E
:10289000E3F273D904060020200300204572726F12
:1028A00072207768696C6520616464696E67204393
:1028B00068617420736572766963652E0A00000092
:1028C000436861742053657276696365206164644E
:1028D00065642E0A545820436861722048616E6412
:1028E0006C6520253034582C205258204368617282
:1028F0002048616E646C6520253034580A00000061
:10290000F0B52DA00FC893B006AC0FC42EA00FC811
:102910000FC431A00FC80FC4102206A9324805F019
:10292000EBFE32480090062301222F4902200AF0D4
:1029300054FA002833D12C4810220AA9103005F08F
:10294000DBFE2A481026801C00270125264A044663
:102950000096039602970A3C01970495059014236C
:102960001032022120890AF019FA002817D11E48D6
:1029700010220EA9103005F0BFFE20460C30059045
:102980000C20194A02950396049501970090142390
:102990001032022120890AF001FA002805D014A083
:1029A00009F0A6F9472013B0F0BDA289618919A0EA
:1029B00009F09EF90020F6E7669A0C200008EFAABD
:1029C000EA11C353A028A075669A0C200008EFAA4C
:1029D000EA11C353A128A075669A0C200008EFAA3B
:1029E000EA11C353A228A075040600202803002082
:1029F0004572726F72207768696C652061646469E2
:102A00006E67204368617420736572766963652E12
:102A10000A0000004368617420536572766963653B
:102A20002061646465642E0A5458204368617220F2
:102A300048616E646C6520253034582C2052582033
:102A4000436861722048616E646C6520253034589B
:102A50000A000000F8B516460D460746002407F0A8
:102A60009FFE002806D032462946384600F0E6FD93
:102A7000044604E020356879002802D00E24204660
:102A8000F8BD2879C10701D1012E09D0810701D4F1
:102A9000022E03D04007F2D4042EF0D10324EEE737
:102AA0000224ECE770B5044615460E461FA009F057
:102AB0001FF9244A9088401C844209D1002404E074
:102AC000295D21A009F014F9641CB442F8DB70BD43
:102AD00053881E4804219B1C9C4207D0D3889B1C12
:102AE0009C4203D053899B1C9C4206D12A78012A20
:102AF000EDD102680A43026070BD9089401C844297
:102B0000FAD1002404E0295D0FA009F0F1F8641C5B
:102B1000B442F8DB02220EA12846FEF795FF0028FA
:102B2000EAD10CA009F0E4F870BD000063616C6CA0
:102B3000206261636B20636F6D706C657465210D3D
:102B40000A00000020030020256300000C03002081
:102B5000313100006D6F6469666965642073756367
:102B6000636573730D0A00007EB5044616460D4674
:102B7000684603F0D5FB68460378237040782870D8
:102B80006846807830707EBD70B500210C4A03E045
:102B9000535C491C5918C9B2535C002BF8D1CE1CA8
:102BA00002243525202E04D2545451184D708870BB
:102BB000CB7004490C704D708870CB7070BD0000F4
:102BC0007C030020F802002010B508F0CBFB1E4C5F
:102BD0004721206849014118097B002909D1A0300B
:102BE0000079C00729D00CF023FB00F097FD00F01E
:102BF000B5FF00F029F92068014640310A78C9790B
:102C00008A4319D13E21095C002915D10F490A8850
:102C1000120711D50922D2061269497A836AC900BE
:102C2000591809231B02C018806D801A0002001277
:102C3000814201DA0AF078FE10BD01F0D7FE02F001
:102C400085FC07F099FBD0E778030020C000002046
:102C500010B50124E402204601F0CFFF00281AD06D
:102C60000021204601F09EFF204601F07CFF0A492A
:102C7000487801231A4682434A708B70184608F040
:102C8000E6F8002008F0DCF8022008F0D9F801216D
:102C9000204601F087FF10BD0003002010B5837FA0
:102CA0000122002492024168082B03D94224914258
:102CB00002D310E0914201D242240CE001463422BA
:102CC000064805F019FD00F07FF8002801DA4824D5
:102CD00001E008F067FF204610BD00002406002038
:102CE0003EB5174D15482968827F0846A0310A7302
:102CF00000246030047644768476E122C276802215
:102D0000027702224277302008704C7002AA01A993
:102D10006846FFF729FF68460078A222010168464D
:102D2000007A891C000201436846007900030143D0
:102D300028681152A03004713EBD00002406002016
:102D40007803002070B508F0F1FA04F0E5FC05F016
:102D5000ADFDFFF78DFC03F04FFF184C18492068BC
:102D6000184D4018811001202A68C0021018C16651
:102D7000616889080167A1688908416707F0C2FA9C
:102D80001D2029688001228B08180287628B4287E8
:102D9000A28B4286628C82862046203002783B20BD
:102DA0004001081882750021017001F097FC03F0C2
:102DB000C9FB0BF083F900F057FF70BD240600201B
:102DC0000000FCEF7803002070B50025ED430BF008
:102DD0004DFF01282ED0002318490322888BFF24A1
:102DE000401E10438A7F4D3462438218088B28248A
:102DF00060431218488B3024604312180846203074
:102E000040782C24604310180D4A1818841848691B
:102E1000A0420DD10B4884420AD90D690BF026FF60
:102E2000C1B2284600F062FD00F090FE401B251A5A
:102E3000284670BDFF23B533CEE7000024060020EE
:102E400039190000580A0000F8B52C4F3C68206E74
:102E50005C34401C002814D0002529480023C07B86
:102E600000283ED00926F6062648002D1CD0002159
:102E70000A460B464169521C994204D1002902D0EE
:102E800004E00125E9E7204B9A42F2D32160006972
:102E900060603069A1680002090E000A090601435A
:102EA000A16000F033F81DE03169A2680902090A47
:102EB000150E08D0018BC90712D041692160006945
:102EC0006060E37210E0881A00027D2300121B0389
:102ED000984205DD100E00060843A06000F016F8C9
:102EE000F8BD6360002DFBD003CC0EF0C5FEFA20C8
:102EF0000EF0F0F939688862F8BD00007803002010
:102F000044060020000010488813000004490020F7
:102F100008610448012100686030C17170470000F9
:102F2000000010487803002010B506F00BF910BD22
:102F300070B5244900230868024640325376137660
:102F40004F225201821853710F22203082750522C0
:102F5000184652020C680546A418246B30352354D9
:102F60000C68A418246B63550C683035A418246BC6
:102F700063550C68A418256B04469034401CC0B2FD
:102F80002B552D28E6D309688A18106B90600446EB
:102F900030345460903010600B480C464834038045
:102FA0000922427105238371C2710372418100F0CD
:102FB0000DF8FF2020706070A070E0701F2020715D
:102FC00070BD000078030020C000002010B5064846
:102FD00001680648406A002803D020220BF0DFFD7C
:102FE00010BD0020087010BD7803002024060020CA
:102FF000F8B5069C1F4615460646002C13D0A0685F
:1030000002220D3005F078FBE81E82B23B46072114
:10301000204605F0D9FCE580A068012E05D01D21D1
:1030200001730020F8BD4720F8BD1B21F8E7000020
:1030300030B531A08BB003C80690079130A003C80B
:1030400008AA03C2012506210020083A0AF095F8D3
:10305000040002D001462CA044E0072101200AF020
:1030600088F809F077FF040002D001462FA039E06C
:1030700037A008F03DFE0AA904A80191009005AB15
:1030800008220021284609F0B9FD040002D00146BB
:1030900037A027E03FA008F02BFE0821002006AA59
:1030A00001AC009107C403466846028A818A002069
:1030B0000AF014F8040002D001463EA012E04AA033
:1030C00008F016FEFFF754FB040002D0014652A0A0
:1030D00008E05AA008F00CFEFFF712FC040006D02E
:1030E00001465FA008F004FE20460BB030BD66A08C
:1030F00008F0FEFD0020F8E7426C75654E5247313E
:10310000AA0000E18002000053657474696E6720B4
:1031100042445F41444452206661696C65643A20D0
:103120003078253032780D0A000000004572726F49
:103130007220696E206163695F676174745F696E94
:10314000697428293A203078253032780D0A000039
:103150006163695F676174745F696E6974282920AF
:103160002D2D3E20535543434553530D0A00000077
:103170004572726F7220696E206163695F6761706A
:103180005F696E69742829203078253032780D0AFD
:10319000000000006163695F6761705F696E697458
:1031A0002829202D2D3E20535543434553530D0AC6
:1031B000000000004572726F7220696E20476174D2
:1031C0007420557064617465206368617261637412
:1031D000657269737469632076616C7565203078F7
:1031E000253032780D0A00006163695F676174748D
:1031F0005F7570646174655F636861725F76616C4E
:1032000075655F6578742829202D2D3E2053554320
:10321000434553530D0A00004572726F7220696E68
:10322000204164645F436861745F536572766963CB
:1032300065203078253032780D0A00004164645FE3
:10324000436861745F536572766963652829202D30
:103250002D3E20535543434553530D0A00000000B3
:103260004572726F7220696E204164645F436861C9
:10327000745F536572766963655F7465737420303B
:1032800078253032780D0A004164645F43686174C8
:103290005F536572766963655F746573742829206E
:1032A0002D2D3E20535543434553530D0A00000036
:1032B00070B515460646FFF7CDFB0446082D0BD129
:1032C000052C09D1304607F06BFA002804D0008A9B
:1032D0004004800F00D00024204670BD24231842F3
:1032E00004D0C81F092803D82032D17100207047AC
:1032F00042207047F1B5FFB08BB001246002059009
:103300000027CC4807970168E320C0000818039005
:103310008A98C74D0005000D0AAA05A906F0F1FE1E
:103320000690002872D104260AA805994218203A6E
:10333000D27F0B2A23D00026002004900AA88119EE
:10334000022201A8029105F0D7F96846818809ABED
:1033500008AA039802F0FEFE012817D002287DD0AB
:1033600068468088854200D30546844200D92046BD
:10337000044602988078012871D013363BE1491E3B
:10338000761E36040591360CCFD1D5E7089800900B
:10339000002F79D1009902222831029805F0A8F96E
:1033A00000281ED100982030017B0298807881424D
:1033B00017D1012808D10098029902220830C91CAF
:1033C00005F096F9002815D002988078022808D1D7
:1033D0000098029910220830C91C05F089F90028CC
:1033E00008D00098008DA84200D80546A04200D21F
:1033F0002046044602990AA88978012907D0133685
:103400000599B6B28E4204D3012707E005E1761D87
:10341000F6E78119022201A805F06EF903990098D8
:1034200008318E462EE084466946026A8B88203039
:103430000DE0918B994203D3012F7DD199427BD925
:10344000A94200D80D46A14200D30C461268824220
:10345000EFD10498002817D1604601E015E0BFE0E5
:10346000006870450ED0018D994203D3012F09D118
:10347000994207D98D4200D30D468C4200D80C46A4
:10348000012F59D17045CED1BAE008980090002F95
:1034900072D1009902221C31029805F029F9002806
:1034A0001ED100982030C17802988078814217D1CF
:1034B000012808D10098029902220830C91C05F0A1
:1034C00017F900281AD002988078022808D10098AD
:1034D000029910220830C91C05F00AF900280DD005
:1034E0000098808BA84200D80546A04200D2204612
:1034F000044602988078012826D003E0029880785C
:10350000012805D013360798B6B201281ED021E055
:10351000009849490089884216D18A9800F060FED7
:103520000146009800F03EFD0099098C484300993F
:1035300089694018022200E038E00299491D05F02F
:10354000DBF801200790D4E7761DDCE7B61C0020ED
:10355000B6B207900598864201D3012705E00AA874
:103560008119022201A805F0C7F8039A00990832D0
:1035700009980968944630E01AE086466A469388BE
:1035800020300DE08A8B9A4203D3012F0ED19A424C
:103590000CD9AA4200D81546A24200D314460968A5
:1035A0008142EFD1049800282AD102E00120049042
:1035B00026E07046006860450FD0028D016A9A428D
:1035C00003D3012F09D19A4207D9954200D315465A
:1035D000944200D81446012FE8D16045CDD10FE0C8
:1035E0000298C078022805D102980079292801D1D3
:1035F000B61CB6B2761D0598B6B2864200D3012736
:103600000598811B042902D3864200D294E60498CF
:103610000028FBD1A54203D906987FB00CB0F0BDBD
:10362000224629468A9803F0CDF90690F5E7000076
:10363000FFFF0000780300200229000070B5154646
:103640000C46064607F095F820346179012D09D023
:103650000A0702D54207920F0FD0CA0625D50207E6
:1036600009D522E0CA0702D04207920F05D08A0787
:1036700005D5020703D4082070BD052070BD490799
:1036800007D5C00709D0E179304606F0FAFF5F2878
:1036900005D02079C00704D005E00F2070BD0C20B4
:1036A00070BD022070BD002070BD890607D5C0071F
:1036B000F3D0E179304606F0E4FF5F28EFD02079BF
:1036C000810701D4022D07D0410701D4042D03D076
:1036D0000007E8D4082DE6D1032070BD10B50848D6
:1036E0000649416107490723CA691202120A4404C4
:1036F0002243CA6100218161036110BD7E3E00004A
:1037000000E000E004ED00E003490A680B689B1A42
:103710008342FBD370470000CC02002010B505F0B7
:1037200029FA04F0F2FF0BF0A1FA012801D100F010
:1037300004F800F0B7F810BD7047704700207047DC
:10374000002101E000BF491C8142FBD3704700000B
:10375000F0B58BB00E4607461C2245A103A8FEF724
:1037600033F9684602F0DCFD09240125E406002F48
:1037700067D04420694688764448017A294301721B
:103780004C206946C87520200875B22048775B2018
:1037900008A908703E4A906A3E49030C8B420AD140
:1037A00008AFFB788F273B4008AFFB70FB784007E2
:1037B000400E0343FB70506A020C8A420AD16B46EA
:1037C0005A7CCF231A406B465A745A7C8007800E6D
:1037D00002435A742E484038006B020C8A4209D1C9
:1037E00008AAD17889088900D170D1788007800F24
:1037F0000143D1706946C87DFB2108406946C87500
:103800004878897800010843122808D308A9C878A5
:103810000421084308A9C870C878FFF7B5F903A8C0
:10382000012180B209044018E060E068C003FCD4C4
:1038300069464878897800010843122801D307F0C7
:1038400027FC1548018B0029FCD0058317218181B5
:1038500000210161002E06D0206910210840226954
:103860000A408242FBD00E490C4808600BB0F0BD04
:10387000023F00023E30023C20023B4C023A400232
:1038800039B202345B02350B00000000000020401A
:10389000C007001055AA000000001048CCBCECFC8A
:1038A00014000020F8B5104E30682030C57D002D82
:1038B00019D0002405277F0210E0E9070BD0C019BA
:1038C00041695820604308184030417D204604F08B
:1038D00021F8002807D06D08641CE4B23068AC21E0
:1038E000095CA142E9D8F8BD78030020F3B581B0A6
:1038F000934A012101A804F070FE924C042220603A
:10390000432101A804F069FE11272168FF01C919AC
:1039100008670422432101A804F05FFE2168042205
:10392000C9194867FF21843101A804F056FE2168B7
:10393000854DC9198867A97F0C2201A80B3104F0B5
:103940004CFE05262168760289198863A97F20220A
:1039500001A804F042FE2168102289198862A97F1B
:1039600001A804F03AFE216828228919C8620521BD
:1039700001A804F032FE216830228919486305212C
:1039800001A804F02AFE2168FF2289190863013288
:10399000012101A804F021FE216858228919086438
:1039A000A97F01A804F019FE216820228919486125
:1039B000A97F01A804F011FE216878228919886185
:1039C000A97F01A804F009FE0F212268C90151183E
:1039D000C8630722032101A804F0FFFD0F2122681C
:1039E000C901511808642822012101A804F0F5FD3D
:1039F0000F212268C90151188864AA8B012101A8EE
:103A000004F0EBFD0721226809025118C866298BD2
:103A1000282201A804F0E1FD0721226809025118BB
:103A20004866698B302201A804F0D7FD072122687F
:103A30000902511888660C22012101A804F0CDFD6D
:103A400021680C2289190861012101A804F0C5FD33
:103A50002168282289190969886028462030009049
:103A6000417801A804F0B9FD216804228919096987
:103A7000896888600098417801A8491C04F0ADFD70
:103A8000216810228919096989684860A97F01A8FD
:103A900004F0A3FD21680222C9194866A97F01A884
:103AA00004F09BFD21680222C919C863A97F01A8FF
:103AB00004F093FD21680222C9190864A97F01A8B6
:103AC00004F08BFD21680222C9194864A97F01A86E
:103AD00004F083FD21680122C9198864A97F01A827
:103AE000491C04F07AFD21681022C91908660B21CF
:103AF00001A804F072FD07212268090251184860EC
:103B00000422802101A804F068FD21688919C86198
:103B1000029ADC204243012101A8443204F05DFDF9
:103B2000216889190862029AD8204243012101A81C
:103B30002C3204F052FD2168891948620198FEBDBB
:103B4000580A00007803002024060020704710B5B2
:103B5000C001000C00F0ECF9002010BDFEB572B6FB
:103B60003F4D0823286801464030C2791A43C2718C
:103B700062B6002011276C46FF0182005218D2194C
:103B8000D26F52884300401CC0B2E2520328F4D3E3
:103B900072B6C8190021866E816662B6F00702D03F
:103BA00000200BF01DFCB00702D501200BF018FC23
:103BB000700702D502200BF013FC300702D503205A
:103BC0000BF00EFC002623E00D281AD2211D254AF9
:103BD0008000125820469047002812D072B62868FC
:103BE000F7224030C1791140C17162B630E03A2805
:103BF00007D21C49231D8000E8390A58194620467F
:103C00009047029829684018C019C06F2188018028
:103C100071006846415AB00002902A688018C019A5
:103C2000C06F0288920892001418028808348A42F1
:103C30000ED0A27891070BD09107890F012901D1ED
:103C400004460834A0788008C006E078CFD5BBE7EA
:103C5000761CF6B2032EDBD30BF0A2FAFEBD0000F9
:103C6000780300202437061070B50BF0B3FA124C1D
:103C700011252068ED014019006F40210BF068F814
:103C800021684919C867486F40210BF061F809267F
:103C9000216836028A1910604819FF21806F81312E
:103CA0000BF056F823680822991948600348002150
:103CB000181804F025FD70BD78030020E808000006
:103CC000FEB506462A4814460068E322D20085184D
:103CD000C888032806D02346002202210420FEF7CC
:103CE00021FB43E08968022268460D3104F004FD9F
:103CF000326990052FD468460188172903D35C20C8
:103D0000405B172801D2172002E0814200D208460A
:103D10007080012040020243022032610190144869
:103D20001B210068890141183788C97E76880123E4
:103D3000490710D51121C901083040182422C06F4D
:103D4000022108F0CFFE002805D08780C6800146FA
:103D5000019808F0B3FEA06803260673A068294600
:103D600002225C310D3004F0C7FCE6800020FEBD6D
:103D700078030020F7B590B000206A460D9090823D
:103D80006A4AE3231268DB00D218CB880446022B70
:103D900008D0002218210420129BFEF7C3FA00204D
:103DA00013B0F0BD8B6800205E7B0A900B90888872
:103DB0003032019209900027019809F033FA054644
:103DC00020E028680890A9880998814219D1A9683B
:103DD000022207A80D3104F08FFC002F01D16846A4
:103DE000878B6846808B87420BD12946019809F062
:103DF00066FA002028600A98002811D00B98056008
:103E00000B95089D002DDCD1002FD4D112981921DB
:103E10008068017301211298012EC18002D081E0D7
:103E20000A95EDE702A90AA8FEF7A9FA002879D0B9
:103E300069460A891821129BFEF774FA002671E080
:103E400081680546022202A80D3104F055FC012EBE
:103E500066D16846008901F01FFB014668460EAA3C
:103E6000008902F095F90E9C1099204600F09AF80E
:103E70000D9055E02F68012E3FD1002F06D0B96874
:103E8000022205A80D3104F037FC02E0002069464B
:103E90008882A968022204A80F3104F02DFCE8886A
:103EA0000D99401F80B20090208CA269484369465A
:103EB0001018098A009A43180921284604F094FC36
:103EC0002220005D012804D16846018A0098081864
:103ED000E08368460189808A81420ED0208C0D994A
:103EE000A269484310180021019000911098E38BBB
:103EF0000188A28B022008F0A5FF0A9908680A90A1
:103F0000002008600A99002900D10B900121284661
:103F100004F006FD69460889898A884202D13D4637
:103F2000002DA7D10A9800288AD139E7780300200C
:103F300000B508490968084A914209D14006010CB8
:103F400006483F22028181611121018000F022F8A0
:103F500000BD000014000020CCBCECFC00001040B0
:103F600000B5094A1268094B9A420BD1084A3F230F
:103F70001381800890610648403001603320108032
:103F800000F008F800BD000014000020CCBCECFCE0
:103F9000000010400248018AC907FCD070470000A9
:103FA0000000104030B5024623239B5C0020012B0B
:103FB0001AD112890D4B9A4216D10D4A0523126867
:103FC0005B02D318A0329B69127B0AE045010C8882
:103FD0005D5B24052D05240D2D0DAC4204D0401C45
:103FE000C0B28242F2D8002030BD00000229000099
:103FF00078030020F7B578480F460068E321C90030
:104000004418F88888B0072804D20022062104202A
:104010000A9B2AE0B968022268460D3104F06CFB65
:10402000B968022201A80F3104F066FBB9680222C8
:1040300004A8113104F060FBF888C01F80B203901F
:1040400068460288808882420CD8002A0AD00898E4
:10405000002142880A9804F099FD002808D04520E4
:104060000BB0F0BD062101200A9BFEF75BF9ABE027
:104070000A9807218068083401730121684601818C
:104080000594008801F008FA05007CD086E06846B7
:10409000008A0522D202904202D0521C904226D1C0
:1040A00068460088814278D329460B220831384679
:1040B000039B04F02FFC69466A8D098A8A426CD101
:1040C0000399022901D0102967D1002865D12A4619
:1040D0002846296A28322030814202D06B6A1C337C
:1040E00000E0134602A90A98FEF72FF955E02E4684
:1040F0002C6A2036B4424ED14FE06946A08B098825
:10410000884247D369468988884257D82320005D72
:1041100001283FD120460899FFF744FF218CA2696E
:10412000414351180B223846039B04F0F3FB0690E1
:1041300008980122008821460005000DFEF78AFC40
:1041400001466A462089128A904223D1002921D152
:10415000E28B03998A421DD1069900291AD1089948
:104160006A4649881289891A042927D322461B499D
:104170001C32884208D12068B04205D000898842AC
:1041800002D02468F7E719E023461C3302A90A98F5
:10419000FEF7DBF82468B442AFD12D68059885425C
:1041A0000CD06846298D8088814207D808986A46D5
:1041B00040881289801A042800D368E7684600897D
:1041C000012803D90A99C880002049E76846028877
:1041D00006210A200A9B48E77803002003280000F4
:1041E00010B50D4900050B680521490259188A6967
:1041F0000021000DA0331B7B0AE04C01145B240559
:10420000240D844202D14801801810BD491CC9B256
:104210008B42F2D8002010BD78030020FFB589B092
:10422000002405460794D0881646052804D00022AD
:10423000042108460C9B20E0B168022208A80D3139
:1042400004F05AFAB168022268460F3104F054FAB9
:104250006846028C008882420CD8002A0AD00A984C
:10426000002142880C9804F091FC002808D04520D9
:104270000DB0F0BD042101200C9BFEF753F8B9E00E
:104280006846008C01F008F9060076D008350495E0
:104290000498864272D06946308D098C884230D3AA
:1042A0006946098888422CD8002C0AD1012107913F
:1042B0000C9805218068022401730C980799806886
:1042C00041730A984088001B042857D30798012897
:1042D00054D1201D81B23346283302220C9804F0B9
:1042E00073FBA01D81B233462A330222A41C0C9812
:1042F00004F06AFB6946A41C308D0988A4B2884288
:1043000074D03746356A2037BD42C1D060E0694677
:10431000A88B098C88425AD369460988884265D897
:10432000002C36D02320415D0798814260D10A9845
:104330004088001B042802D30799012904D01228C1
:1043400056D30798022853D1201D81B22B461C3327
:1043500002220C9804F038FBA41C0798A4B2012890
:104360000DD0201D81B22B46083310220C9804F08A
:104370002BFB2046103084B229E03DE036E0201DC2
:1043800081B22B46083302220C9804F01DFBA01CBE
:10439000F1E72320415D07910C98052180680222F6
:1043A00001730C980799806841730C9829468068BE
:1043B0001C310E3004F0A0F9079901290CD02B46CE
:1043C0000833102208210C9804F0FEFA14242D68FA
:1043D000BD429CD136685BE70C9829468068022272
:1043E0000831103004F088F90624F0E7002C03D0DF
:1043F0000C98C48000203BE76846028C04210A2008
:104400000C9B3AE7830810B50A4800210268052092
:1044100040021018A0328069127B07E04C01045B57
:10442000002C01D0994204D0491CC9B28A42F5D867
:10443000002010BD7803002070B50C460B4E8100A3
:104440000B4832680D1801232032D37721462846C5
:10445000FFF786FD28680021844201D1084600E06C
:10446000FB2032682032D17770BD00007803002035
:104470000000041038B5184A14682246BA32AE3427
:10448000A378DD0701D001290AD05B070CD50129EB
:104490000AD0217949070BD5E17A002905D007E038
:1044A000E07880210843E07038BD0121E17250803E
:1044B00020794106090FF7D0782108406946087035
:1044C000002048706A460221422008F00BFC207947
:1044D00087210840207138BD780300207047000014
:1044E000FFB50C4678A103C995B001910090002159
:1044F00008A801730321C90268464186012108A862
:10450000734E017435681746AE3502F0C7F90028BE
:1045100008D170493068401801F0BEFEA878002824
:1045200002D0462019B0F0BD0BA8159900F09AFAF8
:104530000028F7D1072010A90871012C05D0022C02
:104540000AD0002C0ED04220ECE708A8017B1020F6
:10455000014308A8017305E011A90BA800F091FA26
:104560000028DFD110A8027901230CA9284600F009
:10457000CDFE00287ED102222946189804F0BCF80E
:104580002988684681811521490201820784012614
:1045900086734E2108A881700024C470067107211B
:1045A0004171867103A902A800F06AFC002861D15C
:1045B000022202A91E9804F09FF8082F02D2684632
:1045C000478502E008206946488569460C850B4608
:1045D00028880AAA098901F0C3FB00286DD13E4949
:1045E000684601820227078408A8847103A902A8EB
:1045F00000F046FC002860D1022202A91F9804F0B6
:104600007BF868460470694644704F850B462888DD
:104610000AAA098901F0A4FB00284ED108A8007B52
:10462000C00723D02C496846C91C01820821018497
:1046300008A88770047103A902A800F021FC0028D3
:104640003BD1FF216846C1718171C1708170417099
:104650000170447104716946082048850B4628881A
:104660000AAA098901F07CFB002826D108A8007B52
:10467000800600E021E022D529886846818116491C
:10468000A53101820684867308A88770C4700471FE
:1046900007214171847103A902A800F0F1FB0028F1
:1046A0000BD169460E700C854E850B4628880AAAE8
:1046B000098901F055FB002801D0472032E708A8FE
:1046C000007BA87000202DE7626C75656E72672113
:1046D00078030020DE060000012A000003480021C4
:1046E0000068AE30C1708170704700007803002010
:1046F00038B50246174801240068AE30022A1FD0A0
:10470000052A03D0072A07D00B2A20D108460979A9
:104710004088FFF7AFFE1AE000790024020600D5BA
:104720000124820703D1C20601D480060FD50846B2
:1047300000216A461170694607F0A8FA044606E0AF
:104740008178490703D50179FB2211400171204688
:1047500038BD000078030020704700000FB410B58A
:10476000079C01282DD1684680891749884210D1BD
:1047700003A80FC800F0AAF900281DD105F0D0FB4E
:10478000FA281ED001281CD92078F3210840207077
:1047900017E00D49491C884208D0C91E884205D03F
:1047A000491C884202D0C91C88420AD103AC0FCCF4
:1047B00000F08CF9002800D0632010BC08BC04B0C5
:1047C00018470020F9E70000022A0000FFB507465D
:1047D00071480D4604688FB0AE34A1781E46C806F5
:1047E00002D5E078C0067DD4880607D5E07880063B
:1047F000800F03D0022F01D0002E73D08806800FC7
:1048000006D0022F08D0032F06D0002E6AD003E076
:10481000012F01D0002FF8D1880603D4002D01D03C
:10482000012D5FD1002E06D130200140384602F024
:1048300075FC002856D1119900200870A0788006D8
:10484000800F7DD00CA908A802F01AFF07900DA9CF
:104850000AA802F041FF06900798002802D00698A7
:10486000002801D1012E58D1022F04A807D001F051
:10487000B5FC002E3CD00798002803D012E005F0CC
:1048800051FFF6E7444F45483B68062208A918182F
:1048900003F02EFF0028386808D04030417E4908D8
:1048A000490041760698002805D014E04030417E4A
:1048B00001221143F5E7384F38483B6806220AA920
:1048C000181803F015FF002838680CD04030417EDE
:1048D000FD22114041760798002809D0069800284B
:1048E00006D01AE043E04030417E02221143F1E756
:1048F000294806220368294804A9181803F0FCFE79
:10490000052069460873002E02D1084606F006FE0F
:1049100023480290684606F0B3FDA078800611D5C2
:104920001198032101702079C10603D5002D01D013
:10493000022D1CD1800605D5012D03D0032D00E0EA
:1049400018E014D1A078C00623D511990120087071
:104950002079C10601D5002D09D1810601D5012D8F
:1049600005D1000615D5002D13D0012D11D0422000
:1049700013B0F0BD012F0CD1002E0AD1064806223B
:1049800003680648611D181803F0B6FE119901204E
:1049900008700020ECE7000078030020DE0600002D
:1049A000A0BB0D003EB50AF0FDF904460AF088FAF6
:1049B000082C01D1082813D00A480B4900680622A8
:1049C0004118684603F098FE68464079400601D5D4
:1049D000022000E00320012302AA0021FFF7F6FED7
:1049E0003EBD000078030020DE0600001FB50E4823
:1049F0000468AE34E078010612D5A178C9070CD05E
:104A0000800708D5042069460873684606F086FDCD
:104A1000022008F00DF90020E0704006400EE07022
:104A200000F02EF81FBD000078030020F0B58DB017
:104A30000C4616A9E0C90021089109910A910B9131
:104A40001599049105A9E0C112A962C900930191C9
:104A500013460146039602952246012007F0AAFA62
:104A60000DB0F0BD0A07920F01D0422070478A07AF
:104A7000FBD002788907890F0A4302700020704733
:104A8000704742207047000010B50446022000F035
:104A900051F80D4800210268052040021018A0328C
:104AA0008369107B05E04A019A5A002A04D0491C08
:104AB000C9B28842F7D810BD48011C52C01802691B
:104AC00004210A43026110BD780300201FB582B0A3
:104AD000002401F0CBFB694601F06AFB009A6846AE
:104AE000116A0089203209E023235B5C012B04D189
:104AF0000B89834201D1641CE4B209689142F3D16D
:104B0000204606B010BD000010B504460146042042
:104B100002F094F9002809D00548E3210068C90093
:104B2000401821463C3008F0ADFB432010BD00008A
:104B30007803002004490A683B21490151180A788A
:104B400002430A70704700007803002000B5113856
:104B5000C0B2FFF757FC002804D0012201695205BA
:104B60001143016100BD012189078A6A02438A62FB
:104B700070471CB50121084606F024FB684600F08A
:104B8000B3F88020009006206946087100208871E3
:104B900001204871684600F03DF80021802000F0B7
:104BA000A9F81CBD012292070029D16901D0014357
:104BB00000E08143D16170470CC8012189070838A2
:104BC000012B0B690BD093430B618268012A08D03B
:104BD000002A0AD04A69006802434A6170471343B9
:104BE000F2E78A6903681A4302E08A6903689A4314
:104BF0008A614A6900688243EFE701218907496AAF
:104C0000014201D0012070470020704710B5FEF727
:104C10001FF810BDF0B5027901239B070168002A37
:104C200002D0062A03D006E05C688C4302E05C6890
:104C300000220C435C6000210F240568CD40ED0785
:104C4000ED0F37D0082909D2DE6A8D002746AF4024
:104C5000BE431746AF403E43DE622BE00D46083DA3
:104C6000082D0AD28D002646203D1F6BAE40B7436B
:104C70001646AE4037431F631CE00D46103D082D1D
:104C80000AD28D002646403D5F6BAE40B7431646C4
:104C9000AE4037435F630DE017290BD9114E8D00ED
:104CA0002746603D368BAF40BE431746AF400D4DA3
:104CB0003E432E83491CC9B21A29BED3417901292A
:104CC000D968026809D09143D9608179012999682E
:104CD000006804D081439960F0BD1143F4E70143BB
:104CE000F9E700002000004000210160017181719E
:104CF00041717047012902D00349086070470121C2
:104D00008907C863704700004000004003480068FE
:104D1000AE3080788006800F704700007803002056
:104D2000F3B597B00D8848880590081D1DC80DAED5
:104D30001DC68C8ACE8A087E1390C86920310190E6
:104D4000087800904878049088780390C87802909A
:104D50000F7900F047FD002817D10120400284425E
:104D60005FD8B4425DD8002F01D1B44259D114A903
:104D7000284601F01DFA002806D115AA14990598B5
:104D800001F006FA002802D0602019B0F0BD149D91
:104D900011A92846183003F055F910A8808800287A
:104DA00010D0284612A9203003F04CF910A88388AF
:104DB00000892A8D1818696A10188A8B904203D1CD
:104DC0006120E2E74820E0E715982C4B02899A42DF
:104DD00027D12322125C012A23D100680068169093
:104DE000139801281FD16846808E29221202801A4A
:104DF000030006F0B1FF0604180404070A18022C89
:104E00000FD110E0072C0CD10DE0042C09D3E007E2
:104E100007D1012F07D1A64203D3042E01D3F007F7
:104E200001D04220B1E702980B90039B049A0A93A9
:104E300009920098019A0C9708900696059407929B
:104E40000DA81DC8019002A81CC013980B46009025
:104E50002A461699179800F0AFF9002895D16846B0
:104E60000649808EFF31884205D0179801880020BE
:104E70000A4601F0A7FD002087E700000328000094
:104E8000F3B5A5B008881A9088780C4611901022C6
:104E9000091D13A8FCF798FDA08A1090A17D684613
:104EA0000172E07D0F90207E2090677EA07E1F9093
:104EB000002006460146129020A801810F20BB4C1D
:104EC0002390E3212068C9004018199000F08AFC63
:104ED00000280BD101211098490288425FD821A9EE
:104EE0001A9801F065F9002802D0602027B0F0BDC3
:104EF0002198179001F0BAF91A9988420CD102A8AA
:104F000001901698009013AD0ECD1198FFF726FC76
:104F1000002801D06320E9E76846017A8806800FFF
:104F200005D0012012902068A030007B4600C80701
:104F300003D01298401CB61C1290080603D5129894
:104F4000401CB61C129017980DA918301D9003F044
:104F500079F86846129C808EA41CA04237D317981B
:104F60000EA92030019003F06DF86846018F0029EA
:104F70000DD01798179A6B46406A9B8E128D591860
:104F8000808B5118081AA04201D26120AEE7179811
:104F9000846911982568012803D0022803D0422093
:104FA000A4E7052000E01320E0832A4639460F9845
:104FB000FEF794F9422899D0199FE28B4037788BFD
:104FC000398B411A109810188019814201DA482053
:104FD0008CE70EA9019803F035F86846008F002889
:104FE000179802D0406A808B00E0008D2599401C04
:104FF0000880259801210088A08325980222008836
:10500000401CA8836A482081204620301790C17038
:105010000021817081711998398B406D4018694663
:10502000A061097A0170A06929461C31401C03F077
:1050300063FB11980128A0697ED0102213A9C01C1F
:1050400003F05AFB2846102213A9083003F054FB42
:10505000388B133038832E4620361198F070109814
:10506000E8831F98B07010982084109828841998AD
:10507000398B406D4018A8610021109A03F040FB65
:10508000398B1098081838831799012008711799DF
:105090000020487130716846007A810701D50121EE
:1050A000317101070227002902DA31793943317160
:1050B000410703D53179042211433171400603D5EC
:1050C00030790821084330710F9870712098B071C1
:1050D00021461D9802F0DFFF2146019802F0BCFF37
:1050E00029461D9802F0D7FF2946019802F0B4FF27
:1050F0001298002841D068461A998181A18BC181FC
:1051000007844784012408A8047122A80A9008A8EB
:105110008473239941730F993820014008A80173C3
:105120000721C173002505746846007AC00708D0BE
:1051300020486946088200E02AE003A924A8FFF776
:10514000EFFD6846007A8006800F07D0194869464F
:10515000401E088203A924A8FFF7E2FD6846007AF2
:1051600000060AD5292109026846018208A844736D
:10517000057303A924A8FFF7D3FD25980188129889
:10518000401C081882B2002001F01CFC0020ADE693
:10519000022213A9C01C03F0AFFA2846022213A969
:1051A000083003F0A9FA388B401D53E7780300203C
:1051B0000328000003290000FFB55248E3220068DD
:1051C00087B0D2008218069210AA109B0126169F63
:1051D0009288012B04D14C4B9A4201D1A030067B1E
:1051E000069D34464035688B2B8B7C43C31A099847
:1051F00020300390A34222DA48200BB0F0BD2320D8
:10520000405C012819D108896C46208098420CD056
:105210003D4C641EA04208D0641CA04205D0641C12
:10522000A04202D0A41CA04207D1374CFF3CA042B0
:1052300001D0904201D16220DFE7096801E0292313
:105240001B0203988142DAD109981B998469189846
:105250002246FEF743F84228CFD01C98012804D1FB
:105260001598874201D24220C7E71598E08320466F
:1052700020301C990590817027840A98808B401CEF
:10528000A0831098012814D02046102211A90830BC
:1052900003F032FA05991098C8700698298B406D72
:1052A0004018A061298B38467043081828830025D0
:1052B0000FE011A80FC808340FC4183CEAE72846CD
:1052C000A16978430818159A179903F015FA6D1C0F
:1052D000EDB2B542F3D3059918984871059919981C
:1052E000087105991A98887109982146183002F0BA
:1052F000D2FE2146039802F0AFFE0798A18B0180F1
:1053000000207AE77803002002290000FFB58FB063
:1053100014460E78102205A8891CFCF755FB50484E
:10532000E3210068C900451800F05CFA00281ED18E
:10533000002C57D0012E09D16846808A49498842FD
:1053400004D12846A968083081424BD12846103044
:1053500029690390814209D00AA9284602F072FE09
:105360006846018D601E0D90814202D2482013B024
:10537000F0BD284608300CA9049002F063FE684690
:10538000008E002814D0EF680AA93846183002F0C1
:1053900059FE384620300CA902F054FE6846398D7B
:1053A000008D09186846008E401C081887B200E07E
:1053B000012701200004C01BA04201D26120D6E7D2
:1053C0002C69286801901298012802D0022803D085
:1053D00008E00520C00200E023486085012E03D0CC
:1053E000022E05D04220C2E720460830022202E009
:1053F00020460830102205A903F07EF920463146E8
:105400002030064601730F982146078027850398B0
:1054100002F041FE2146049802F01EFE274618378E
:10542000E7616662A76126620D9884B20BE02846A8
:10543000019902F030FE3846019902F00DFE28680D
:10544000641EA4B20190002CF1D10F9801880D9830
:10545000081882B2002001F0B5FA002087E70000AA
:1054600078030020011800000128000002460948C6
:10547000E3210068C90041188868083103E0038D02
:10548000934202D200688842F9D1884200D10020BC
:105490007047000078030020034610B50F48E32151
:1054A0000068C90041188868083103E0148D9C42E7
:1054B00003D8104602688A42F8D18A420CD1018D85
:1054C000994209D20146026A20318A4203D0416AD8
:1054D000898B994200D2002010BD00007803002083
:1054E000024610B50B481205016805204002081855
:1054F00083690020120DA031097B07E044011C5B89
:105500002405240D944203D0401CC0B28142F5D83A
:1055100010BD000078030020F7B505461746019836
:1055200007F080FE2E050446360D0CE0A0882568A5
:10553000B04207D12146019807F0C1FE3946204606
:1055400003F0EEF92C46002CF0D1FEBDF0B58BB087
:10555000002064490290E3200A68C000141872B663
:1055600010464030C57902231D43C57162B62546F9
:105570004035287AC0077DD005204002101800264B
:1055800087694AE071017A5A002A44D0C919069104
:1055900009694A021FD48A0227D50221049106997B
:1055A000012309880905090D03911B21890141186F
:1055B000C97E89070FD51121C9010830401823225F
:1055C000C06F022107F08EFA010004D0039A8A808E
:1055D000049807F073FA069800880090069800F087
:1055E00083F8009804F080FE15E0480713D506986C
:1055F00000880005000D04F053FE002805D1069830
:1056000000880005000DFDF775FE06990420096964
:10561000814306980161761CF6B23248AC210068DD
:10562000095CB142AED803F0C3FC204624300646E4
:1056300007F03EFE012802D0012003F0BBFB20460C
:10564000183007F035FE012802D0002003F0B2FB2D
:105650003C34204607F02CFE01280FD002A920463A
:1056600007F04FFE0420029901F0E8FB0028F0D07B
:10567000204600E034E0029907F0F1FD287A0006A8
:105680002ED5304607F014FE012829D1002003F062
:10569000C7F8A98B23314909491CC9B2FCF76AF93B
:1056A00000281DD00F4D044628681121C90108307B
:1056B0004018422601233822C06F314607F012FA03
:1056C00001000DD000228A80CC80304607F0F6F928
:1056D0003B212A68490151180A78802082430A70C8
:1056E0000BB0F0BD78030020F0B504463C48E32140
:1056F0000068C9004518218A85B089041AD502219D
:1057000004911B2189014118497F412627880123E3
:10571000C9070FD01121C901083040183122C06FCC
:10572000022107F0DFF9010004D08F808E71049808
:1057300007F0C4F92946208801221831FFF7ECFE52
:105740002946208801223031FFF7E6FE29462088CD
:1057500001222431FFF7E0FE2946208800223C3157
:10576000FFF7DAFE20880005000DFFF7B9FE85007F
:10577000294611316846017305F0D0FE29461231E1
:105780006846017305F0CAFE294613316846017365
:1057900005F0C4FE68461435057305F0BFFE208889
:1057A00000F028FA208801050D48090D026805203F
:1057B00040021018828F914201D100218187E06957
:1057C000002802D0012103F0ABF82022002120465E
:1057D000A56802F095FF1720A560608005B0F0BDB8
:1057E0007803002010B50B48E3210068C900441875
:1057F0004034207AC00709D0002003F011F8217A44
:10580000890701D5002803D0002010BD472010BD16
:10581000642010BD78030020F0B55FA099B0006847
:105820005E491590E3220868D200841805225202CE
:10583000821892692546403514922A7AD20702D0FE
:10584000622019B0F0BDAA8B01235B029A4201D9F4
:10585000AB8303E0172A01D21722AA83149AA0303F
:105860001392067B0DE0761EF6B2139871010F18A5
:10587000B8680F9038462022002102F041FF0F98AF
:10588000B860002EEFD120460830E0606460A06070
:1058900024600830139060612061FF2200210830ED
:1058A00007F0D5FC2046FF220021243007F0CFFC72
:1058B0002046AA7F0021303007F0C9FC2046FF2295
:1058C00000213C3007F0C3FC00222A721046172149
:1058D000324B05E0149E4701BE19401C7180C0B2D6
:1058E0001E68A036367B8642F4D8002028832F8C91
:1058F000688C0026149008E02820E16C7043091899
:10590000204602F0A9FB761CB6B2BE42F4D30026B4
:1059100008E03020216D70430918139802F09CFBB9
:10592000761CB6B214988642F3D30120FFF702F931
:105930000124684604701A494180234604226946BE
:105940000CA8FFF7E3FC002822D16846018E818273
:1059500014490183042606858475202108A88172D4
:105960000024C472047307214173847305A90DA830
:10597000FFF786FA00280BD1684604874687818E98
:1059800015AB0EAA008E00F0EBF9002800D158E705
:1059900000202872472054E70000FFFF7803002012
:1059A00001180000052A0000F8B504467D480E469F
:1059B0000068E321C90047184820C05DC0077BD0BC
:1059C000B088FEF70DFC0546012C02D0002C75D0E6
:1059D000E6E0002D0CD0286941074AD4B268F1886E
:1059E000147B0029F4D062060CD56888884201D265
:1059F0000121B2E0D22C01D0522CF9D138463146E7
:105A000018303FE0A106890E1E293ED81E2C21D158
:105A100001071FD50821884328612988012005F046
:105A20006DFB0121304602F07BFF5E4811210068CA
:105A3000C9010830401842242D8801233922C06F43
:105A4000214607F04FF8010003D08D80204607F073
:105A500035F8A5E0E1070AD01D2C10D01B2C0ED084
:105A6000410529D4012189020843EE6192E0C00674
:105A700001D54520F8BD2988002005F02DFB3846CA
:105A80003146243007F0FEFB8AE0298820220020DE
:105A900002F0EAFE05000FD00121304602F040FF7F
:105AA0002B46002221460620FCF73CFC2846FFF747
:105AB0002BF875E000E001E04120F8BDB068047B00
:105AC0001D2C3AD01B2C41D00021304602F028FF7B
:105AD000032C46D0052C44D0072C42D0092C40D0B2
:105AE0000B2C3ED00D2C3CD00F2C3AD0112C38D0A2
:105AF000132C36D0172C34D0192C32D0012C30D0A6
:105B0000022C35D0042C33D0062C31D0082C2FD0C9
:105B10000A2C2DD00C2C2BD00E2C29D0102C27D0B9
:105B2000122C25D0162C23D0182C21D0522C1FD06B
:105B3000D22C1DD01E2C2FD032E0002D03D029886E
:105B4000012005F0C9FA3146022001E0314601206A
:105B500005F0ECF9002823D00021304602F0E0FEE9
:105B60001EE029691020814329612988002015E061
:105B70002869402188432861010511D5FF210131A1
:105B8000084328612988022005F0A6FA0121286926
:105B9000C9028843286103E02988032005F0AEFA92
:105BA0000020F8BD7803002010B5114AE3231268E5
:105BB000DB00D2184032127AD20706D002280AD06F
:105BC000052804D00B2810D101E0412010BD4888E1
:105BD000FEF75AFF09E04888FEF702FB002804D0D0
:105BE00001220169920511430161002010BD0000EE
:105BF00078030020F1B5FFB085B047200190002068
:105C0000694608805348E3210068C9004718849812
:105C1000FEF7E6FA0290002874D0B96808374FE022
:105C2000684600880D4604AC20186B4602222831D5
:105C30000DF07FFB68460088294620186B4601223C
:105C40002C310DF076FB2E462036307B694601283C
:105C5000098804A809D040186B461022294608314B
:105C60000DF067FB01902C6A27E040186B4602227A
:105C7000F4E76946098804A8401821466B460222C9
:105C80001C310DF056FB6946098804A840182146CE
:105C90006B46012223310DF04CFB2320005D694649
:105CA0000128098804A830D0401821466B461022EC
:105CB00008310DF03EFB01902468B442D9D1296827
:105CC000B942ADD1019800281CD1684600888107EF
:105CD0000AD0214A011D11406A4611800A1A04A9FE
:105CE00008180B2102F00CFD0298008804F0D8FA85
:105CF000002807D1849869460005000D04AA098888
:105D000004F030F97FB006B0F0BD401821466B4674
:105D1000022208310DF00DFB019020890F498842C5
:105D2000CAD120460299FEF73DF94000A1690390CF
:105D30006A460918128804A880186B4602220DF0E2
:105D4000F8FA0190A169039802220818002102F0D4
:105D5000D7FCB1E778030020FCFF00000229000017
:105D6000F0B5074617480E4600683B214901401828
:105D7000007885B01D461446C00706D003A93846F2
:105D800000F016FA00280AD102E0472005B0F0BD65
:105D900004AA3046039900F0FBF9002801D06020E6
:105DA000F4E70499228860880968002A00D0088CEA
:105DB00032466E4631C603233946002000F004F80F
:105DC000E4E7000078030020FFB5002099B0239A93
:105DD0000B90129005461490064615901C46DB4821
:105DE0000B460068E321C900411803910021229F5E
:105DF000089109915188069111880A913B21490126
:105E000040180078C00706D00FA9184600F0D0F956
:105E100000280AD102E047201DB0F0BD10AA0F995A
:105E20001B9800F0B5F9002801D06020F4E719981C
:105E3000002803D0600701D5012000E00020139066
:105E4000A007800F1C90109817902030C078012870
:105E500040D11798BE4B01899942F9D117980699FC
:105E600004680A98228C4118914233D82046203089
:105E700016908078012816D0E08B049017988069DE
:105E800000788006800F7DD0039840301890007A0B
:105E9000800777D51C980028F5D0AD4F0F99FF37B4
:105EA0002031206814E0BA4214D3B942DDD80497F7
:105EB000E4E70389A64A934203D12322125C012A14
:105EC00008D0BB4203D12322125C012A03D0006810
:105ED0008842EED134E105900028FBD09B48052193
:105EE00002684902511889690027009162E078012F
:105EF00000990390085A01055AD01999002901D038
:105F0000884255D105997A008B69511C595C9A5C7D
:105F10000902891889B20D91890749D00222059991
:105F2000FCF798FD002804D01998002840D065207F
:105F300072E7002008A9C8551C98C00718D0179808
:105F400080690078C00613D50D98C00710D00120D5
:105F5000C8550543009A039880184088159A9042C6
:105F600006D91590009A0398105A0005000D149058
:105F70001C9880071CD5179880690078800617D573
:105F80000D9800E084E0800712D50220CA5D054329
:105F90000243CA55009903984018408815998842D1
:105FA00006D9159000990398085A0005000D149021
:105FB0007F1CFFB265480068A030037BBB4296D8C7
:105FC000002D65D01898007A00065FD45F480168FC
:105FD000052040020818816900201BE042018E5A0A
:105FE000360515D0AE070BD556183669B7070DD450
:105FF00008AF3F5CBF0703D5360701D546200BE746
:10600000EE0705D05218127CD20701D0432003E7D7
:10601000401CC0B28342E1D81598C01E86B20498D5
:10602000864200D90646A8070FD5202200201499E1
:1060300002F01AFC129000287DD0F01C82B20021E0
:10604000129802F09CFD002811D1E80720D02022F0
:106050000020149902F008FC0B90002807D0F01CD7
:1060600082B200210B9802F08AFD002810D0802017
:10607000FEF760FD1298002802D0002102F050FCCB
:106080000B98002802D0002102F04AFC6420C3E6ED
:10609000A1690A98069A0818249902F02DFB16980F
:1060A0008078012801D10498E083002D46D0274B49
:1060B00005201968400208188169002008AA0CE030
:1060C0004301CF5A3F0506D05F18BC463B69175CB9
:1060D0003B4367463B61401CC0B21C4B1B68A0336E
:1060E0001B7B8342ECD8A8070DD512980090F01CBA
:1060F00082B221461C310220A369FCF779FF0220FD
:10610000129904F013FFE80718D00B980090F61CC2
:106110002146B2B21C310120A369FCF769FF139834
:10612000002805D00B988021C07C08430B99C874C7
:1061300001200B9900E005E004F0F8FE00206BE67A
:10614000422069E68020FEF7F5FC9FE778030020F7
:1061500003280000F0B58468083015E0258D8D42D5
:1061600003D1146018600120F0BD26461C60203663
:10617000256A06E0AF8B8F4202D102201560F0BD88
:106180002D68B542F6D124688442E7D10020F0BDE5
:1061900010B50B6A203106E09C8B844202D10020AE
:1061A000136010BD1B688B42F6D1412010BD00006A
:1061B00010B5094AE3231268DB00D218936808324D
:1061C00006E01C8D844202D100200B6010BD1B68CC
:1061D0009342F6D1412010BD78030020F8B5204E3F
:1061E00004463568AE3500F09BFA2070000A6070F6
:1061F00000F096FAA070000AE07000F091FAC2B2C6
:106200008004830E2271002163710846275C401CC4
:106210007918C0B289B20628F8D30029E3D02078D3
:10622000FF280CD16078FF2809D1A078FF2806D17B
:10623000E078FF2803D1FF2A01D1FF2BD3D006221B
:10624000691D204602F054FA0028CCD0316806229D
:106250002046783102F04CFA0028C4D0F8BD000086
:10626000780300200120C002704700000248006847
:10627000AE3000887047000078030020002803D06B
:10628000012803D0022804D0082070470120800391
:10629000704701207047000010B5034906220968C5
:1062A000B33102F029FA10BD78030020F7B5164685
:1062B00000241CE000981149001940188108019839
:1062C0008900001942780578120215438278C07857
:1062D0001204000602430948154340420F1829469C
:1062E0003846FDF73DFE3868854204D1241DB4428E
:1062F000E0D30020FEBDFB20FEBD00000000FCEF4F
:10630000F0B50E460746002407E03D1900F008FAF4
:106310002870000A6870A41CE4B2B442F5D3F0BD42
:106320000F4910B528390E4BCA691206120F427078
:10633000C9690907090F817019680A4C0123416076
:10634000A14202D10221017000E00370002A00D1B5
:1063500043700549898A491C8900816010BD00008D
:106360002800904041A000020000104010B5012814
:1063700018D8072916D80C4A126813462033187704
:1063800059778007C906000E090E01430020074B0C
:10639000A03204E08401E418A172401CC0B2147B56
:1063A0008442F7D8002010BD7803002000010020AF
:1063B000074A914202DC5242914200DA1146FF2222
:1063C000993251430A1251180A145118081870478B
:1063D000FFFF4F00401AC0108100401800127047A4
:1063E00010B50920C00600690002000A05F0C2F8D5
:1063F00010BD70B50D460446FFF7F2FF2946FFF7C2
:10640000D7FF0146204600F001F870BD1FB56A466F
:106410003A3010736846029105F044F8002800D025
:10642000012004B010BD7047F0B5444F04463868F1
:1064300085B0783016460D46002C19D0062C11D0A8
:10644000082C0CD0182C0AD0282C0BD02A2C09D0C0
:106450002C2C0AD02E2C0BD0D02C42D043E0102D67
:1064600008D040E0022D05D03DE0012D02D03AE0F9
:10647000062D38D10A460019314602F03DF92C2C80
:1064800028D13078002825D008F0F0FB012824D04E
:106490001B201F304009401C41004118012002F020
:1064A000ADF908F0E3FB012819D01B201F3040098B
:1064B0004100411822484078401AC01EC1B2002055
:1064C00002F09CF938684022403001781143F922EB
:1064D00011400170002005B0F0BDFB20D9E7FB2082
:1064E000E4E7012D04D008F0C1FB012804D007E047
:1064F000107804F0B6F8EEE7D12C01D1082D01D0C8
:106500001220E8E702223146684602F0F5F802223E
:10651000B11C01A802F0F0F80222311D02A802F01D
:10652000EBF80222B11D03A802F0E6F86846838961
:106530000289818800880AF0ACFCCCE7780300204F
:106540004406002070B51A4C1B252068AD01411986
:106550000026184B0E720622FF21C01802F0D0F858
:10656000206820214019C673017408F07FFB0128C0
:106570001CD01F2021680F4B49194874206809332B
:1065800007220021C01802F0BBF80A4B2068103324
:106590000522FF21C01802F0B3F8064B20681B3318
:1065A000FF220021C01806F052FE70BD5F20E1E717
:1065B00078030020C906000010B51846012A01D949
:1065C00080231943D3B20A465F2104F071FB10BD4A
:1065D00038B50C00054605D0402C03D00D490EA05F
:1065E00000F080F86B4601222221FFF7E5FF00282A
:1065F0000ED168460178BF200140214368460170F2
:106600006B4601222221284600F064F8002800D0C1
:10661000012038BD390300002E2E5C2E2E5C2E2E5C
:106620005C2E2E5C2E2E5C4C6962726172795C531A
:10663000444B5F4576616C5F426C75654E524731E5
:106640005C7372635C4854533232312E6300000035
:1066500038B50C00054605D0012C03D00E490FA01B
:1066600000F040F86B4601222021FFF7A5FF00282B
:106670000FD1694608786B464106490EE001084390
:106680006946087001222021284600F023F80028DE
:1066900000D0012038BD0000610200002E2E5C2ECB
:1066A0002E5C2E2E5C2E2E5C2E2E5C4C696272614E
:1066B00072795C53444B5F4576616C5F426C7565E3
:1066C0004E5247315C7372635C4854533232312E00
:1066D000630000001846D3B210B50A465F2104F0EB
:1066E0004DFB10BD0A46014601A005F001FBFEE787
:1066F00057726F6E6720706172616D657465727339
:106700002076616C75653A2066696C65202573207A
:106710006F6E206C696E652025640D0A0000000014
:1067200000210B200007026852070DD502680423E0
:106730009A430260026808231A43026004E0491C7D
:10674000052901DD0020704742689207F7D54168AE
:10675000C907FCD0806880B2704710B5FFF7E0FF32
:106760000446FFF7DDFF0004201810BDFEE7704768
:10677000704710B50A888B884C881A43CB88640010
:1067800023431A430B8949891A43C9030A43C26048
:1067900010BD816370470174704701688022114306
:1067A00001607047006B084000D0012070474069CD
:1067B0000007800F7047000070B5044600680D4662
:1067C000400840002060206803214903884369791C
:1067D0008907490C08432060687922494000085A1B
:1067E0002968214A4843101A204A3026914209D884
:1067F0004900FBF7BFF82168B143216061683203AB
:1068000089B20EE01A4A91420DD84A008918FBF766
:10681000B1F82168B143103121606168012289B269
:106820005204891861606168EA88890A8902114303
:106830006160218D20852068062188432979890798
:10684000490F08432060297A08200129216806D0D1
:1068500081432160206801210843206070BD01430D
:10686000F7E70000D00200200024F400A086010019
:10687000801A0600007E7047034901600021017103
:106880004171C180017270478813000000680006E2
:1068900001D501207047022070470000F0B5454C3B
:1068A000052526686D027019406C0027416B42482F
:1068B000AE368DB0814242D006216846FFF720FDFA
:1068C00069464879C0210843694648712068062214
:1068D0004019406C2430FFF7E9FC0746102105A859
:1068E000FFF70EFD206810224019406C05A9001D1D
:1068F000FFF7DCFC0743102109A8FFF701FD206822
:1069000010224019406C09A91430FFF7CFFC014652
:10691000394313D1206829494019406C264F40184B
:10692000800881002648081839460490FDF718FBB6
:1069300004980068B84201D1002700E0FB272268D4
:106940005019406CA6322430019006200146009078
:10695000002008F066FF002802D12068A6300190D0
:10696000701D009A019901F0C7FE22681026314679
:106970000020803208F055FF002807D020683246FA
:106980004119496C8030091D01F0B6FE226831467C
:106990000020903208F045FF002807D020683246DA
:1069A0004119496C9030143101F0A6FE38460DB003
:1069B000F0BD000078030020AAAAAAAA3400FCEFC8
:1069C0000000041030B50F4BE3251B68ED005B1988
:1069D000403304461B7A412085B09B0710D56B4697
:1069E0009981DA81002018820420588203AA04A920
:1069F0006D4607C502231A4601212046FFF7E4F938
:106A000005B030BD7803002008B5002108460AF023
:106A10002EFB012100200AF0EDFB69460870694653
:106A200000200AF0DAFB684600780028F7D1002140
:106A300008460AF09AFB012100200AF0AEFB012172
:106A400000200AF078FA032100200AF03DFB012122
:106A500000200AF0A7FA012100200AF01AFC012107
:106A600000200AF0EDFA032100200AF0E3FB0321E5
:106A700000200AF0B6FA002108460AF0F2FB0621CF
:106A800000200AF0C5FA012100200AF073FA08BDBF
:106A9000024600200146535C002B00D00120491C17
:106AA000C9B20629F7D37047024800682030C07F7A
:106AB000704700007803002070B50E460546014679
:106AC0002022002001F0D0FE040023D0284600F050
:106AD00059F8050027D02879B04224D1A87880073A
:106AE0001FD4A06801210173A06800214673A0682B
:106AF00002268673A068C173A0680174A0684174FF
:106B00000620E0802146052000F098F9002803D0F7
:106B1000412509E064250BE0A8783043A8700025E2
:106B200006E0462500E042250021204601F0F8FE5F
:106B3000284670BD70B514460D4600280BD111468D
:106B4000284603F055FF21462846FFF72DF8214639
:106B5000284600F0A3FA70BD70B505460C4600202B
:106B600000F010F800280BD02905090D0180002144
:106B70008170002C01D10821817001210171C17047
:106B800070BD000030B502460A4811230068DB01E1
:106B90000021C318A030047B07E0586E0D01401996
:106BA0000588954204D0491CC9B28C42F5D8002012
:106BB00030BD00007803002030B50A491123096870
:106BC0000246DB010020CB18A031097B07E05C6E98
:106BD000050164192488944203D0401CC0B281424C
:106BE000F5D830BD780300208068017A407A000231
:106BF000081880B27047000070B50023134A1DE0EA
:106C00001125ED0140191901466E0024C81C3454A9
:106C100010684019466E081D345410684019406EC3
:106C2000445210684019466E0846083034521068C5
:106C30000C314019406E5B1C4450DBB21068AC2133
:106C4000095C9942DCD8002070BD00007803002068
:106C500010B5024688680C46817AC07A000208188E
:106C600081B2E088001FE080042909D005290CD0FA
:106C700006290FD00121204601F052FE002010BD50
:106C800021461046FEF790FE08E02146104600F02F
:106C90002BF903E02146104603F030FE0028EED029
:106CA000E188091DE18010BDF3B581B00D460026D5
:106CB0008888FFF767FF07002FD03C46287B083401
:106CC0000228F8682ED0002834D0E888218840189F
:106CD0002080284601F09EFD61688A6801461046C2
:106CE00001F04AFA0121284601F01AFE01206168EC
:106CF00001F050FD6068FFF777FF001D218880B22A
:106D000081421FD881421BD16168C88061680198A7
:106D1000FFF79EFF06000FD017E00121284601F083
:106D2000FFFD12E0002801D04526E3E76560E88812
:106D30002080DFE7656005E000206060208004E0DF
:106D4000452E02D1384600F0BBF93046FEBD024662
:106D500010B50020002A05D0012A02D11046FFF705
:106D6000A3FF10BD1046FFF773FF10BD70B50546B9
:106D7000801E0C46030004F0EFFF0A0C1C1C0618D2
:106D80000B0B0B0B060B0A4620782946FFF7D2FEA9
:106D900070BD2846FEF708FF2146284603F028FE6E
:106DA0002146284600F07AF970BD284603F020FEFF
:106DB00070BD62880978284603F016FD70BD00009A
:106DC000F0B585B0FFF7F8FE1B4D04462868A030EB
:106DD000007BA0422DD920463230694608736846B0
:106DE00004F09CFB11262868F6018019426E0021F0
:106DF00024011153286827468019426EE01C115463
:106E000028680C378019426E201D1154286880199B
:106E1000406EC05900280CD0012101F081FD296885
:106E200000208919496EC85129688919496E0834AA
:106E3000085305B0F0BD00007803002010B50C46E3
:106E40000146042805D0052903D0062901D0502089
:106E500010BDA068A2790272E088020AA06842729E
:106E6000A0688172A068090AC172E088001DE080F4
:106E7000022020732046FBF729FC0028E8D0E08898
:106E8000001FE080412010BDF8B532380106022015
:106E9000144E009011253068ED010C0D42191B2194
:106EA0008901526E4118897E175B012349070CD571
:106EB000083040191E220221C06F05F013FE0100A8
:106EC00003D08F80009805F0F9FD31680020491942
:106ED0004A6E211D505431684919496EE41C085509
:106EE000F8BD000078030020F0B50D468DB00021FC
:106EF0000A91A96800280F7B02D0012822D0C5E0A2
:106F0000A888FFF759FE634E04463068A030007B26
:106F1000A04215D9122F08D15F4802902046323086
:106F200069460873684604F0ABFA11203168C00165
:106F30000818406E210140188178FD2211408170AF
:106F40000021A0E0A888FFF737FE06465148AC2292
:106F50000168525CB24218D91120C0010818406E75
:106F600032018418A278100710D5122F10D15007C3
:106F700010D4A9882A46422006F006F9A0780421F8
:106F80000843A070A868407B20717BE0132F0AD0D3
:106F9000012F42D0A868417BA888FFF78DFD0A9099
:106FA00000286FD072E0A868E778437BBB4269D1C4
:106FB000520767D5027C407C01230002101887B27B
:106FC00042200490A88806901B2080010818807E2B
:106FD000800710D51120C001083108181D22C06F8C
:106FE000049905F07FFD010005D0069A8A80CF80C4
:106FF000049805F063FDA078FB210840A070E078BC
:10700000401C0006000EE07001D10120E0706846CF
:107010003236067304F082FA34E0100732D4A868DE
:10702000E178407B88422DD150072BD5FB200240D0
:10703000A270E078401C0006000EE07001D1012033
:10704000E07068463236067304F068FA1148112180
:107050000068C901083040184224AE88202202236B
:10706000C06F214605F03EFD01000BD0A868437BB0
:10707000877BC07B8E80000238188B710881204688
:1070800005F01CFD0121284601F04AFC0A980DB0CC
:10709000F0BD0000780300203075000010B5022814
:1070A00009D0052801D00B2808D108460979408865
:1070B000FFF752FD02E04888FFF782FE002010BD76
:1070C000F8B50546807810210843A870422000904A
:1070D000114811210068C901083040180127022613
:1070E0003B462122C06F009905F0FCFC04000AD049
:1070F0002771667132462946A01D01F0FDFA21462E
:10710000009805F0DBFC0121E86801F009FC002093
:10711000E8602881F8BD000078030020FEB50F4626
:107120000646002407F0CCFE054607F03BFE082D7E
:1071300001D3082811D202A9684600F089FA002F6D
:10714000684606D04079400601D5022102E00321BD
:1071500000E0017AB14200D041242046FEBD00008B
:10716000FFB507468DB000200890079073481E4673
:107170000168734815460C181120800108184775DE
:10718000C275002B01D0002101750E9800287DD01A
:10719000FFF77EFC002879D0002E03D02034207920
:1071A000012873D0FF24002E07D0022D02D0032D1A
:1071B00002D002E0002500E0012560486149006836
:1071C00040180B90022F01D0032F66D1684605703E
:1071D0000622401C0E9901F08FFA6946002001F04A
:1071E000FDFBFF2803D00B99C2005118CC795349FD
:1071F000002E0A68544910D05118CC7200220A752A
:10720000FF284AD0362044434C48FF2100682F31E4
:107210002018095C002903D014E05118CC71EFE765
:107220000146FF31FF3047311F3001F0A5FC4348D4
:10723000062200682118FF3105A8483101F05CFAE8
:10724000012007903D49FF2208684E322018125C49
:10725000002A19D10146FF31FF304031303001F0B2
:107260008BFC3648062200682118FF3103A8413103
:1072700001F042FA01200890002E05D02F4801218C
:107280000268314810180175079800E010E00028E6
:1072900003D03246012105A802E0324629460E9865
:1072A00000F01AFD0898002802D0012103A811E07F
:1072B000002F06D0012F1AD0022F02D0032F07D1A2
:1072C00015E01E48062201686846783101F014FA7C
:1072D0000021684600F06AFD0124A402002F10D0AE
