:020000041005E5
:1018000000600020A5980510358B0510CD6C0510E3
:10181000AA5555AA45554C420000000000000000A2
:10182000000000000000000000000000B1B0051042
:101830000000000000000000C190051085B60510F2
:101840006D5105101D8C0510000000000000000007
:10185000C9BA0510AFB005106936051055BC0510A2
:101860000000000000000000000000000000000078
:10187000000000003B220510D16C0510CF6C051054
:10188000000000006B8605106D8605106F86051040
:1018900071860510C59805104D8C0510993C0510F2
:1018A0000000000000000000000000000000000038
:1018B0000000000000000000000000000000000028
:1018C000EFF31482EFF309811C4880F31488BFF30F
:1018D0006F8FF0B543464C4655465E466746F8B4B2
:1018E000174CEFF30883236006B4164C2068164C9F
:1018F0002060164C2068164C2060164C2068164C50
:101900002060164C276800202060BFF34F8F30BF47
:1019100027600B4C246884F3088882B003BCF8BCB1
:101920009846A146AA46B346BC46F0BC04BC80F328
:10193000098881F31488BFF36F8F104700000000FF
:101940000800002004ED00E0F002002024ED00E09B
:10195000F402002000E200E0F8020020080020402D
:101960000348854600F076FA004800477D0E0610D1
:101970000060002030B50B460146002020220124E3
:1019800009E00D46D5409D4205D31D469540491BB3
:101990002546954040191546521E002DF1DC30BDFC
:1019A00070B500242546002801DA012440420029B0
:1019B00001DA01254942FFF7DDFFAC4200D0404289
:1019C000002C00D0494270BD10B5441A0346944221
:1019D00009D28318891803E0491E0C785B1E1C701D
:1019E000521EF9D210BD0C460443A40703D009E0EF
:1019F00010C9121F10C3042AFAD203E00C781C701D
:101A0000491C5B1C521EF9D210BDD2B201E002701B
:101A1000401C491EFBD270470022F6E710B5134662
:101A20000A4604461946FFF7F0FF204610BD30B5C0
:101A300004460020034600E05B1C934203D2E05CB6
:101A4000CD5C401BF8D030BD30B5054600200346C4
:101A500000E05B1C934205D2EC5CC85C201A01D10B
:101A6000002CF6D130BD0321001D401E0378120268
:101A70001A43491EF9D51046704700000FB400B54F
:101A80008DB009900B9010A900200091C0430A90DE
:101A900000200C9006480690064807906A4609A860
:101AA0000F9900F063F90DB008BC04B018470000AE
:101AB0008D1D0510AD1D0510FFB50027FF4383B038
:101AC00000205C6801909E681D46A9697F1C0498EF
:101AD00088470090296A88470028F6D10098401C62
:101AE0000CD0032040028443002E19DD600614D57B
:101AF00000982B2809D02D280FD103E00020C043E7
:101B000007B0F0BD012080020443A9697F1C04983E
:101B10008847761E0090002E02DD0098302803D002
:101B20000598002825D035E0012040020443A9692A
:101B3000761E7F1C049888470090002E03DD7828CD
:101B400005D0582803D00598002810D022E0059829
:101B5000002801D010281DD1012040028443A9692A
:101B6000761E7F1C049888470090102002E0082011
:101B700000E00A2005900DE0012149020C43059A7E
:101B80000199761E514308180190A9697F1C049899
:101B900088470090002E05DD0599009800F0D0F8E8
:101BA0000028E9DAE96904988847A00502D40120F1
:101BB000C043A5E7E00722D1600611D56005019872
:101BC00000D5404229680A1D2A600968220501D50E
:101BD000087014E0220701D5088010E008600EE0CC
:101BE0002868011D29600068210502D5019901704E
:101BF00005E02107019901D5018000E00160384628
:101C00007EE7024670B54A40D30FDB0740002DD077
:101C10004A002AD0010E140E000212020919400ACD
:101C2000520A8418E50104465443000A120A2E049D
:101C30005043A4194219200CC543AA18120C0125BF
:101C4000AD03521C521912047F39240400D0521CD7
:101C5000104301D44000491EC2B20C06C00920182E
:101C6000401C4008802A02D003E0002070BD4008DC
:101C70004000002900DA0020184370BD70B502460C
:101C80004A40D50F40004A00ED074008520800289E
:101C900014D0002A12D0C40DD30D41020120C0057A
:101CA0005202490A520AE41A091812187D34914264
:101CB00001D3641C00E04900002C01DA002070BD53
:101CC0000023914201D3891A0343400849000028A8
:101CD000F7D100290AD0914202D10121C90705E0BC
:101CE000914201D2012101E00121C943E005C01860
:101CF000401900F06DF870BDC217C10F504010B50B
:101D00004018CA079623002100F06AF810BDC20FE0
:101D1000410040020123400ADB05D207090EC0182A
:101D20007F2901DA00207047962903DC9623591A8F
:101D3000C84001E096398840002AF4D040427047FC
:101D40003A2800D23038202302469A43412A01D350
:101D500010463738884201D30020C0437047000046
:101D600002681378511801601846704710B5D160A9
:101D7000044951610449116200211161114600F0CA
:101D800083F810BD611D0510791E05104268002AF8
:101D900008D001680B78491C002B03D0521E06C0E6
:101DA000184670470121C160881E70474268002AAA
:101DB0000BD0C3680168002B07D183688B4204D025
:101DC000491E521C06C0002070470020C0437047C7
:101DD000002904DA401C490001D140084000704746
:101DE00070B40024050C05D11024000402D1002990
:101DF00021D01124050E01D100020834050F01D1B4
:101E00000001241D850F01D18000A41C002801DBE6
:101E10004000641C002908D020252E1B0D46F540EB
:101E2000A14000D001212943084301061B1B000AE1
:101E3000DB1D02D5002070BC7047DB051818801828
:101E40000029F8DA401C4900F5D170BC4008400078
:101E500070470000064C0125064E05E0E36807CCFC
:101E60002B430C3C98471034B442F7D3FFF77CFD6A
:101E7000903206102033061010B50F21C0B249026F
:101E800000F09EF910BD0000F3B58DB000200A905F
:101E900001200B90002608460C300C460990626920
:101EA000012109989047051E2ED0252D2DD0216A9D
:101EB0008847002818D06269012109989047216A53
:101EC00088470028F7D1411E62690998904700E0D1
:101ED000761CA1690D988847216A88470028F7D1A8
:101EE000E1690D988847DAE7A1690D9888470746A8
:101EF000A84201D1761CD2E7E1690D9888477F1C82
:101F000002D10A98002877D049E1002762693D464E
:101F10003946099890472A280CD16269012109980D
:101F20009047012506E00A214F433F18303FEBD48C
:101F30001020054362690121099890470146303914
:101F40000A2903D29B498F42DEDCECE7E90600D484
:101F5000994F6C280AD04C2810D0682824D06A28C1
:101F60002ED074280CD07A280AD00DE062690121A5
:101F7000099890476C2823D004211CE020200543B9
:101F80006269012109989047A760656065284FD074
:101F900026DC582839D01ADC452849D012DC2528FF
:101FA00034D04128B0D143E06269012109989047BB
:101FB000682802D008210D43E6E70120C002DEE7D1
:101FC0000220DCE7462833D047282CD130E05B28BC
:101FD00070D061282CD063286CD0642823D161E0B4
:101FE0006F284FD009DC662822D0672820D06928C6
:101FF00026D06E2817D12EE0CDE070284DD0732862
:102000006FD075284ED078280DD154E0A1690D9875
:1020100088470546252800D16CE7E1690D98884777
:102020006D1C00D16DE7BAE00A224CE00A2252E0B2
:10203000012023466A46C0430D99C046C046A3E02E
:102040002846402108436060A807234601D50022A6
:1020500039E000223FE0E80700D020E72068011DBA
:1020600021600068290501D5067018E7290701D508
:10207000068014E7A90703D5F117066041600EE753
:1020800006600CE72846402108436060A807234605
:1020900001D5082217E008221DE0484928460840DB
:1020A000606016E02846402108436060A807234688
:1020B000BCD5B9E715E02846402108436060A80771
:1020C00007D5234610220120C0430D99C046C046C3
:1020D0005AE0234610220120C0430D99FFF7ECFC83
:1020E00052E000210C910B460091632802D05B283E
:1020F00007D043E0E80601D40120A0600120009051
:102100003CE062690121099890475E2805D10120D1
:102110000C9001466269099890472169002906D10F
:102120000B4601AA8F00491CD3510829FADB00286D
:1021300035D0216900290ED1C117C90E09184A11DD
:10214000930001AA9A1849094901411A012013680C
:1021500088400343136062690121099890475D2814
:10216000E5D10C98002808D0002001AB81005A5816
:10217000401CD2435A500828F8DB01AB012022460C
:10218000C0430D99C046C04600280ADA401C06D15B
:102190000B98002803D00020C0430FB0F0BD0A9870
:1021A000FBE7E90702D10A99491C0A913618002079
:1021B0000B9074E6CCCCCC0CFFFFFF7FF1F7FFFF58
:1021C0007F2801D9002207E0054B42089A5CC0072E
:1021D00000D112091207120F0120904008407047E9
:1021E0004D32061070B58C180578401C6B075B0FDC
:1021F00001D10378401C2A1106D10278401C03E06B
:1022000006780E70401C491C5B1EF9D12B0705D4C3
:102210000023521E0DD40B70491CFAE70378401CB2
:10222000CB1A921C03E01D780D70491C5B1C521EDA
:10223000F9D5A142D8D3002070BD7047FEB54F4DEF
:102240006878002805D0012000226870114601F04E
:1022500033F8A87800287CD0E868C00779D003213B
:1022600000200EF0ABFD032100200EF07EFC434861
:1022700006211430FFF7D0FB4049002014310EF046
:1022800017FC3E4E00201436305EFFF735FD3C4F04
:102290003946FFF7B6FC3B49FFF7F0FC3A4C2060AB
:1022A0000220305EFFF728FD3946FFF7AAFC3549CA
:1022B000FFF7E4FC60600420305EFFF71DFD394647
:1022C000FFF79FFC2F49FFF7D9FCA0600621B01D46
:1022D000FFF7A2FBB11D00200EF009FCB61D002087
:1022E000305EFFF709FD2949FFF78BFC27460C37C5
:1022F000386001900220305EFFF7FEFC2349FFF7B3
:1023000080FC786000900420305EFFF7F5FC1F49E8
:10231000FFF777FCB86007462068FFF7F8FC264611
:10232000183630606068FFF7F2FC7060A068FFF755
:10233000EEFCB0600198FFF7EAFC243420600098BE
:10234000FFF7E5FC60603846FFF7E1FCA060022083
:1023500000E008E00AF082F92146304600F0C8F8B3
:102360000A2001F081FC2879002805D002211020E4
:1023700000F08CF800202871FEBD0000080300204A
:102380000000F44300007A440404002000008C4262
:102390007FB505469868012202739A681C465173FE
:1023A0009868022202A90E3006F048FCA1680520B8
:1023B0000D74E0807FBD70B5064608881D460C464A
:1023C000001D81B213460222304606F09FFD21888F
:1023D0002B46891C2180091D89B20222304606F055
:1023E00095FD2088801C208070BDFEB500240E461F
:1023F0002746056845E028680290A9680222304611
:102400000D3106F01BFC3088B84209D087B238463F
:1024100003F0F2FA014601AA384604F069F9019C7A
:10242000A968022268460F3106F008FCE888401FC0
:1024300081B22220005D002806D001280BD00028A0
:1024400011D0012814D01BE0E08B6A461288401E90
:10245000904206D307E0208C6A461288401E9042C4
:1024600006D20720FEBD684600880818E18B03E00D
:10247000684600880818218C884201D90D20FEBDCD
:10248000029D002DB7D100203080FEBD7FB50246F1
:102490000020140A154ED5B2022918D0032914D1F0
:1024A0000CF062FA694608710CF05EFA000A69469F
:1024B000487100208871CD710C7201A8052300902D
:1024C0000022F18830880AF0F5FB04B070BD0CF0F2
:1024D0004BFA694608730CF047FA000A69464873DC
:1024E0008D73CC7303A804230090E9E72803002030
:1024F000F8B50C4606460CF037FA1F4D28700CF064
:1025000033FA000A68703078A87030880A21001207
:10251000E87030792871B08800126871307AA8713B
:1025200030890012E8712068FFF73AFA0646206009
:102530000A216068FFF734FA60600A21A068FFF79B
:102540002FFAA0602E72208814230012687220795E
:10255000A872A0880012E872207A287320890012DD
:1025600068730020A873E873024604480095418808
:1025700000880AF09FFBF8BD5806002028030020C1
:10258000FFB5C8880025401E83B00E4687B20124DF
:1025900027E0B0680222083001196846091D06F0DC
:1025A0004DFB6846008803F027FA01001DD06846FD
:1025B0000A8D0088824212D001AA04F099F80028FE
:1025C0000DD101992620405C400708D506986A0085
:1025D000101802221C3106F031FB6D1CADB2A41C98
:1025E000A4B2BC42D5D30C98058007B0F0BDFFB5AE
:1025F000074683B0002000900D9803F0FDF90546D2
:1026000006980C300190002D26D00837BD4223D00B
:10261000288D0E9988421FD80D99884213D30E99A0
:10262000884210D8294602222A31019806F006FB7A
:1026300010220C99069806F0FDFA002809D0298D81
:102640000E98814208D02E462C6A2036B442DDD046
:102650003EE005980021018007B0F0BDA08B0D99E8
:10266000884234D30E99884234D8204620300290D4
:10267000C078012808D02046083010220C9906F0B6
:10268000D9FA002808D022E0214602220831019818
:1026900006F0D4FA0698F0E702988079400716D53C
:1026A0000098002801D1E08B0090E18B814211D18C
:1026B00005980222008841000498081821461C3120
:1026C00006F0BCFA059805990088401C088024682B
:1026D000B442C3D12D6899E706480021026805205D
:1026E000400210180173417303218173C1730020EC
:1026F000704700008003002070B50D4D0446112185
:102700002868C9014018902601231A46C06F314637
:1027100009F0F0FF010003D030464C6009F0D6FF0D
:102720000520296840020918087B401C087370BD09
:102730008003002010B5044600202082A074A16808
:10274000A16161612060204605F096FB452801D01B
:10275000412010BDA08803210CF03EF904460CF086
:1027600033FE002812D072B60948012201684F20BA
:10277000400109184879A2401043487162B6002010
:102780000FF032F8002801D00AF070FF002010BDD1
:102790008003002070B5C17C0E4D4906490EC174FE
:1027A000044611212868C9014018902601230022FF
:1027B000C06F314609F09EFF010003D030464C60E7
:1027C00009F084FF0520296840020918487B401C55
:1027D000487370BD80030020F0B533A00FC897B0D8
:1027E00006AC0FC434A00FC80FC437A00FC80FC465
:1027F00039A00FC80FC4102206A93B4806F01EFAE4
:102800003A4F092301223849022000970AF0EDF8D7
:10281000002845D1344810220AA9103006F00EFADB
:1028200010240025B81C01262F4A00940394029519
:1028300004960195059014231032022138880AF07D
:10284000B5F800282CD1284810220EA9103006F027
:10285000F5F9381D05900C20234A0296049603943E
:102860000195009014231032022138880AF09EF856
:10287000002815D11C48102212A9103006F0DEF9EC
:10288000B81D194A00940394029504960195059089
:1028900014231032022138880AF088F8002800D06A
:1028A000472017B0F0BD0000669A0C200008969EE5
:1028B000E2119EB1E0F273D9669A0C200008969E50
:1028C000E2119EB1E1F273D9669A0C200008969E3F
:1028D000E2119EB1E2F273D9669A0C200008969E2E
:1028E000E2119EB1E3F273D96C06002028030020A8
:1028F000F0B528A00FC893B006AC0FC429A00FC82C
:102900000FC42CA00FC80FC4102206A92D4806F032
:1029100095F92D480090062301222A4902200AF049
:1029200064F8002833D1274810220AA9103006F095
:1029300085F925481025801C00260124214A0746D8
:102940000095039502960A3F01960494059014237E
:102950001032022138890AF029F8002817D11948C5
:1029600010220EA9103006F069F938460C30059097
:102970000C20144A029403950494019600901423A9
:102980001032022138890AF011F8002800D04720BF
:1029900013B0F0BD669A0C200008EFAAEA11C353E9
:1029A000A028A075669A0C200008EFAAEA11C3536C
:1029B000A128A075669A0C200008EFAAEA11C3535B
:1029C000A228A0756C060020300300200320704769
:1029D000F8B516460D460746002408F083F900288E
:1029E00006D032462946384601F0CCF8044604E0C9
:1029F00020356879002802D00E242046F8BD2879B9
:102A0000C10701D1012E09D0810701D4022E03D0C4
:102A10004007F2D4042EF0D10324EEE70224ECE7C1
:102A200070B5164C1346A188491C884205D1144A3A
:102A300014A11846FFF722F870BD658812490422D8
:102A4000AD1CA84207D0E588AD1CA84203D065891B
:102A5000AD1CA84206D118780128EDD108681043B2
:102A6000086070BDA189491C8842FAD1074801213C
:102A700002789143017001F0D5F870BD2803002061
:102A80000403002025640000140300200A03002032
:102A90007EB5044616460D46684603F0F1FE6846CC
:102AA00003782370407828706846807830707EBD47
:102AB00070B500210C4A03E0535C491C5918C9B297
:102AC000535C002BF8D1CE1C02243525202E04D2D5
:102AD000545451184D708870CB7004490C704D706F
:102AE0008870CB7070BD0000E4030020FC02002061
:102AF00010B508F0A9FE1E4C472120684901411875
:102B0000097B002909D1A0300079C00729D00CF039
:102B100085F901F0B3F801F0D1FA00F0DBFC206890
:102B2000014640310A78C9798A4319D13E21095CAE
:102B3000002915D10F490A88120711D50922D2069A
:102B40001269497A836AC900591809231B02C018FF
:102B5000806D801A00020012814201DA0AF0DAFC6C
:102B600010BD02F0F3F902F0A1FF07F0A7FED0E7D5
:102B700080030020C000002010B50124E40220469C
:102B800002F0EBFA002816D00021204602F0BAFA33
:102B9000204602F098FA0849012348781A468243F1
:102BA0004A7088781A4682438A7001F03BF8012106
:102BB000204602F0A7FA10BD08030020F3B5FFB0CD
:102BC00090B00446684603F05BFEFE48007A5290DF
:102BD000FD4880880790FD4800685190FC4E002019
:102BE00081008B191B68401C53AAC0B2535008289F
:102BF000F6D3F848006A5090F748006A4F900120D9
:102C0000800701684E9141684D9181684C91C1687F
:102C10004B9101694A914169499181694891C16922
:102C20000491C16A4791016B4691406B4490EB4817
:102C3000008B4390E948203040684590E848C168DF
:102C40004291017F4191E649203189884091E449D0
:102C50002031097A3F91E2492031097B3E91006B96
:102C60003D90DF482030007D3C90DD482030008BD7
:102C70003B90DB484030017A3A91017C3991017DEB
:102C80003891017E3791007F3690D54860300078CA
:102C90003590D4480168349141683391017C329178
:102CA000017D3191CF4920310A7930920A892F92E2
:102CB000C06A2E90088A00222D90CB481105081872
:102CC000036891007BAD6B5045687DAB5D50858B93
:102CD0007FAB5D50058C81AB5D50858C83AB5D50C7
:102CE000058D85AB5D50C56A87AB5D504C231D5A81
:102CF00089AB5D50056D8BAB5D50836D521C8DA80B
:102D0000D2B24350022AD8D30B20000700682C907F
:102D1000B6484168299181682891018A2791818A62
:102D2000269181692591017F2491B0492031098A3A
:102D30002391416B2291816B2191C06B2090AB4814
:102D4000403001681F9141681E9180681D90A8481D
:102D500081881C9101891B91017C1A91017D199137
:102D6000018B1891007F1790A248818816910189E4
:102D70001591017C1491017D1391018B1291007FBB
:102D800011909D4801692B9140692A909B480168E8
:102D90001091007A0F909A48006800282ED00020E9
:102DA000039000201421974A414389184D688200FE
:102DB00063AB9D500D685BAB9D508D686BAB9D50B8
:102DC000CB68401C73A9C0B28B500828EAD381207D
:102DD000C00541680D91017B0C91418B0A91018BDB
:102DE0000B91416A0991816A089100880E90032035
:102DF000800780680690032C02D008E08248CFE765
:102E00000920C006416803221207114341607F492F
:102E1000002009687E4D503905917E4F296004C914
:102E20008300401CFA50C0B229601428F7D36946C9
:102E30004878897800010843122804D37649002095
:102E4000086007F01FFC0920C0064068734908604D
:102E50005C4908790978012292071268520A4A40AF
:102E600090437DD1012008F07FFCFEF729FD002072
:102E700008F07AFC6A480078002872D0694801217D
:102E80000183002181810161084605992960810043
:102E90007A58296804C1401CC0B229601428F6D3AE
:102EA000494907988880494951980860002053AAE9
:102EB0008100535889190B60401CC0B20828F7D311
:102EC00044485099016244484F99016201239B078D
:102ED0004E9818604D9858604C9898604B98D86000
:102EE00048989861499858614A981861049898627E
:102EF0000498D8614798D8624698186344985863F4
:102F0000364943980883354945982031486034490B
:102F10004298C860419808773148409A20308280B2
:102F20003F9A02723E9A02733D9A0A633C99017578
:102F30003B9901832A483A994030017239990174CA
:102F40003899017537990176369901772448359972
:102F5000603001702348349901603399416001E089
:102F600038E1E6E032990174319901751D49309AD2
:102F700020310A712F9A0A812E9AC2622D980882F6
:102F800000227BAD18481105081891006E580660A4
:102F90007DAE765846607FAE765A868381AE765A8D
:102FA000068483AE765A868485AE765A068587AEC9
:102FB0007658C66289AE765A4C273E528BAE76580A
:102FC000066531E0000020400000104000E100E014
:102FD00000E400E000ED00E0000090402000004030
:102FE00000003040000040400000A0400000F040E1
:102FF0000000D0400000E04000E000E00000704031
:10300000000C7040080000A051E5CC1A0018051013
:10301000D00200209403002014000020180000209B
:103020000C000020000010488DAE71588165521CC4
:10303000D2B2022AA6D30B2109072C98086089482E
:103040002A994161002181612B9901618648299962
:10305000416028998160279901822699818225996A
:103060008161249901772299416321998163209993
:10307000C1637D481F99403001601E9941601D99D0
:103080008160794823992030018278481C99818099
:103090001B9901811A99017419990175744A18993B
:1030A000114001831799017772481699818015990B
:1030B00001811499017413990175129911400183CA
:1030C000119901776C48109901600F9901726B4951
:1030D000039808606A4F00205BAD14214143C91971
:1030E000820063AEB6584E60AE580E606BAEB658F6
:1030F0008E6073AEB258CA60401CC0B20828ECD3D0
:103100008120C0050D9941600C9901730A99418392
:103110000B99018309994162089981620E99018096
:1031200003218907069888605648007A002854D001
:1031300083E0554A1068400637D411685348544B11
:1031400000685D6A4140534E3668B5421AD1126834
:10315000824203D050480068084213D14F480121F1
:103160000068090702465D680A400D40AA4209D17D
:1031700089105A6808400A40904216D039480069C0
:10318000800712D50921C9060869454A0309D81CD8
:10319000904204D80A6912098242FBD305E04148F3
:1031A00018180A6912098242FBD169464878897861
:1031B00000010843122805D3012007F063FA3B48B9
:1031C00039490160032C05D10921C9064868220745
:1031D000904348607FB012B0F0BD3548018909299D
:1031E0002BD30189812928D89099002925D00289DB
:1031F0000921914302D1D96989051BD40289112182
:10320000914302D1D969490514D4028921219143FE
:1032100002D1D96909050DD402894121914302D116
:10322000D969C90406D401898120884305D1D869A8
:10323000800402D5144801210160032C05D1092026
:10324000C006426821078A4342601A4952980872B0
:10325000032C04D00021002000F02AFDBAE7012150
:10326000F9E7000000E000E00000F0400000D0407E
:10327000BFFF00000000E04000007040000C704004
:10328000080000A00000904000E200E0F8020020EA
:1032900000ED00E0F402002000E100E0F002002078
:1032A000FFFF0F000400F0FFCCBCECFC140000207A
:1032B0000000104800002040F7B50746EFF31084E7
:1032C00072B600261448067000F066F905463846C6
:1032D000FFF77CFBB84200D33846854200D228462F
:1032E0000E4B81005A58521C5A50002809D0012810
:1032F0000BD00B49029A0A70019A0A710199FFF7E3
:103300005DFC84F310880020FEBD0648017A067239
:1033100030BF0172F5E700000C000020840300209C
:10332000000020400000704010B5837F012200247F
:1033300092024168082B03D94224914202D310E043
:10334000914201D242240CE001463422064805F0A5
:1033500075FC00F07FF8002801DA482401E008F04D
:1033600093FE204610BD00008C0600203EB5174D90
:1033700015482968827F0846A0310A73002460300E
:10338000047644768476E122C27680220277022295
:103390004277302008704C7002AA01A96846FFF7F6
:1033A00077FB68460078A22201016846007A891CF2
:1033B0000002014368460079000301432868115266
:1033C000A03004713EBD00008C0600208003002068
:1033D00070B508F01DFA04F079FC05F009FDFFF75F
:1033E0007BF903F0E3FE184C18492068184D40188B
:1033F000811001202A68C0021018C166616889081E
:103400000167A1688908416707F01EFA1D20296835
:103410008001228B08180287628B4287A28B42862A
:10342000628C82862046203002783B2040010818BA
:1034300082750021017001F001FC03F033FB0AF0FA
:1034400033FC00F0C1FE70BD8C0600200000FCEFD4
:103450008003002070B50025ED430BF0FDF9012835
:103460002ED0002318490322888BFF24401E1043CE
:103470008A7F4D3462438218088B282460431218D7
:10348000488B3024604312180846203040782C24A2
:10349000604310180D4A181884184869A0420DD1CD
:1034A0000B4884420AD90D690BF0D6F9C1B22846FF
:1034B00000F0CCFC00F0FAFD401B251A284670BD38
:1034C000FF23B533CEE700008C0600203919000039
:1034D000580A0000F8B52C4F3C68206E5C34401C44
:1034E000002814D0002529480023C07B00283ED0A6
:1034F0000926F6062648002D1CD000210A460B4658
:103500004169521C994204D1002902D004E00125EE
:10351000E9E7204B9A42F2D321600069606030698C
:10352000A1680002090E000A09060143A16000F02B
:103530008DF81DE03169A2680902090A150E08D04C
:10354000018BC90712D04169216000696060E37294
:1035500010E0881A00027D2300121B03984205DD4B
:10356000100E00060843A06000F070F8F8BD63601C
:10357000002DFBD003CC0EF0DDF8FA200DF06EFC30
:1035800039688862F8BD000080030020AC06002086
:103590000000104888130000F8B5294D0020296864
:1035A0000A4640321378D279934347D14A6E120EBD
:1035B00044D13E22525C002A40D1431E21488D6AEC
:1035C000467A1A460024F600AD190926F606376930
:1035D00000887D1907070120002F06DAF314CB18A5
:1035E0009C6D631B1B021B1228D407273F02C919BD
:1035F0000969CF0103D54A1B120212121ED40125FC
:103600002D07002B06DA002A0ADA75600E4885605D
:1036100003200AE01120000604437460002A03DB43
:103620002943084607F060FF022005490968403138
:103630004A78002A02D0002048700320F8BD00001C
:1036400080030020C0000020400000480449002002
:1036500008610448012100686030C17170470000B2
:10366000000010488003002010B506F00DF810BDD2
:1036700070B5244900230868024640325376137619
:103680004F225201821853710F2220308275052279
:10369000184652020C680546A418246B3035235492
:1036A0000C68A418246B63550C683035A418246B7F
:1036B00063550C68A418256B04469034401CC0B2B6
:1036C0002B552D28E6D309688A18106B90600446A4
:1036D00030345460903010600B480C4648340380FE
:1036E0000922427105238371C2710372418100F086
:1036F0000DF8FF2020706070A070E0701F20207116
:1037000070BD000080030020C000002010B50648F6
:1037100001680648406A002803D020220BF035F8E3
:1037200010BD0020087010BD800300208C06002012
:10373000F8B5069C1F4615460646002C13D0A06817
:1037400002220D3005F07AFAE81E82B23B460721CC
:10375000204605F0DBFBE580A068012E05D01D2189
:1037600001730020F8BD4720F8BD1B21F8E70000D9
:1037700010B51DA08CB003C8069007911CA003C80B
:1037800008AA03C2012406210020083A09F0EBFA36
:10379000002827D10721012009F0E1FA09F0D0F92A
:1037A00000281FD10AA904A80191009005AB0822A6
:1037B0000021204609F02AF8002813D1082106AA82
:1037C00001AC009107C403466846028A818A002042
:1037D00009F07AFA002805D1FEF7FEFF002801D192
:1037E000FFF786F80CB010BD426C75654E5247313C
:1037F000AA0000E18002000070B515460646FFF7FA
:10380000E7F80446082D0BD1052C09D1304607F006
:1038100069FA002804D0008A4004800F00D00024F8
:10382000204670BD2423184204D0C81F092803D89D
:103830002032D1710020704742207047F1B5FFB0AF
:103840008BB00124600205900027CC4807970168DF
:10385000E320C000081803908A98C74D0005000DAA
:103860000AAA05A906F0EFFE0690002872D10426E8
:103870000AA805994218203AD27F0B2A23D00026A5
:10388000002004900AA88119022201A8029105F0E3
:10389000D5F96846818809AB08AA039802F00AFFA7
:1038A000012817D002287DD068468088854200D341
:1038B0000546844200D920460446029880780128B3
:1038C00071D013363BE1491E761E36040591360C45
:1038D000CFD1D5E708980090002F79D10099022226
:1038E0002831029805F0A6F900281ED10098203052
:1038F000017B02988078814217D1012808D1009875
:10390000029902220830C91C05F094F9002815D04C
:1039100002988078022808D1009802991022083075
:10392000C91C05F087F9002808D00098008DA8422E
:1039300000D80546A04200D22046044602990AA8B3
:103940008978012907D013360599B6B28E4204D37F
:10395000012707E005E1761DF6E78119022201A89B
:1039600005F06CF90399009808318E462EE08446E4
:103970006946026A8B8820300DE0918B994203D30F
:10398000012F7DD199427BD9A94200D80D46A14291
:1039900000D30C4612688242EFD10498002817D158
:1039A000604601E015E0BFE0006870450ED0018D73
:1039B000994203D3012F09D1994207D98D4200D3EF
:1039C0000D468C4200D80C46012F59D17045CED1FE
:1039D000BAE008980090002F72D1009902221C31A1
:1039E000029805F027F900281ED100982030C178F0
:1039F00002988078814217D1012808D10098029955
:103A000002220830C91C05F015F900281AD00298C6
:103A10008078022808D10098029910220830C91C29
:103A200005F008F900280DD00098808BA84200D836
:103A30000546A04200D2204604460298807801281C
:103A400026D003E002988078012805D01336079825
:103A5000B6B201281ED021E0009849490089884269
:103A600016D18A9800F06CFE0146009800F04AFDDD
:103A70000099098C4843009989694018022200E0A6
:103A800038E00299491D05F0D9F801200790D4E7E4
:103A9000761DDCE7B61C0020B6B20790059886427A
:103AA00001D3012705E00AA88119022201A805F027
:103AB000C5F8039A0099083209980968944630E0DD
:103AC0001AE086466A46938820300DE08A8B9A4237
:103AD00003D3012F0ED19A420CD9AA4200D8154621
:103AE000A24200D3144609688142EFD1049800280D
:103AF0002AD102E00120049026E07046006860456B
:103B00000FD0028D016A9A4203D3012F09D19A4244
:103B100007D9954200D31546944200D81446012F88
:103B2000E8D16045CDD10FE00298C078022805D1D8
:103B300002980079292801D1B61CB6B2761D0598E5
:103B4000B6B2864200D301270598811B042902D30F
:103B5000864200D294E604980028FBD1A54203D9FE
:103B600006987FB00CB0F0BD224629468A9803F033
:103B7000D9F90690F5E70000FFFF00008003002060
:103B80000229000070B515460C46064607F093F86A
:103B900020346179012D09D00A0702D54207920F1E
:103BA0000FD0CA0625D5020709D522E0CA0702D0E0
:103BB0004207920F05D08A0705D5020703D40820D3
:103BC00070BD052070BD490707D5C00709D0E17950
:103BD000304606F0F8FF5F2805D02079C00704D0F2
:103BE00005E00F2070BD0C2070BD022070BD0020CC
:103BF00070BD890607D5C007F3D0E179304606F0DD
:103C0000E2FF5F28EFD02079810701D4022D07D091
:103C1000410701D4042D03D00007E8D4082DE6D1D4
:103C2000032070BD0149002008607047CC020020CD
:103C300010B508480649416107490723CA691202BD
:103C4000120A44042243CA6100218161036110BD4C
:103C50007E3E000000E000E004ED00E00148006866
:103C600070470000CC02002003490A680B689B1AC9
:103C70008342FBD370470000CC02002010B505F052
:103C80001BFA04F0E4FF0AF0E7FD012801D100F07F
:103C900004F800F0B7F810BD704770470020704777
:103CA000002101E000BF491C8142FBD370470000A6
:103CB000F0B58BB00E4607461C2245A103A8FDF7C0
:103CC00083FE684602F0DCFD09240125E406002F8E
:103CD00067D04420694688764448017A29430172B6
:103CE0004C206946C87520200875B22048775B20B3
:103CF00008A908703E4A906A3E49030C8B420AD1DB
:103D000008AFFB788F273B4008AFFB70FB7840077C
:103D1000400E0343FB70506A020C8A420AD16B4684
:103D20005A7CCF231A406B465A745A7C8007800E07
:103D300002435A742E484038006B020C8A4209D163
:103D400008AAD17889088900D170D1788007800FBE
:103D50000143D1706946C87DFB2108406946C8759A
:103D60004878897800010843122808D308A9C87840
:103D70000421084308A9C870C878FEF799FE03A873
:103D8000012180B209044018E060E068C003FCD45F
:103D900069464878897800010843122801D307F062
:103DA000CBFB1548018B0029FCD0058317218181AD
:103DB00000210161002E06D02069102108402269EF
:103DC0000A408242FBD00E490C4808600BB0F0BD9F
:103DD000023F00023E30023C20023B4C023A4002CD
:103DE00039B202345B02350B0000000000002040B5
:103DF000C007001055AA000000001048CCBCECFC25
:103E000014000020F8B5104E30682030C57D002D1C
:103E100019D0002405277F0210E0E9070BD0C01954
:103E200041695820604308184030417D204604F025
:103E30004BF8002807D06D08641CE4B23068AC2150
:103E4000095CA142E9D8F8BD80030020F3B581B038
:103E5000934A012101A804F062FE924C04222060E2
:103E6000432101A804F05BFE11272168FF01C91955
:103E700008670422432101A804F051FE21680422AE
:103E8000C9194867FF21843101A804F048FE216860
:103E9000854DC9198867A97F0C2201A80B3104F050
:103EA0003EFE05262168760289198863A97F2022B3
:103EB00001A804F034FE2168102289198862A97FC4
:103EC00001A804F02CFE216828228919C862052166
:103ED00001A804F024FE21683022891948630521D5
:103EE00001A804F01CFE2168FF2289190863013231
:103EF000012101A804F013FE2168582289190864E1
:103F0000A97F01A804F00BFE2168202289194861CD
:103F1000A97F01A804F003FE21687822891988612D
:103F2000A97F01A804F0FBFD0F212268C9015118E7
:103F3000C8630722032101A804F0F1FD0F212268C4
:103F4000C901511808642822012101A804F0E7FDE5
:103F50000F212268C90151188864AA8B012101A888
:103F600004F0DDFD0721226809025118C866298B7B
:103F7000282201A804F0D3FD072122680902511864
:103F80004866698B302201A804F0C9FD0721226828
:103F90000902511888660C22012101A804F0BFFD16
:103FA00021680C2289190861012101A804F0B7FDDC
:103FB00021682822891909698860284620300090E4
:103FC000417801A804F0ABFD216804228919096930
:103FD000896888600098417801A8491C04F09FFD19
:103FE000216810228919096989684860A97F01A898
:103FF00004F095FD21680222C9194866A97F01A82D
:1040000004F08DFD21680222C919C863A97F01A8A7
:1040100004F085FD21680222C9190864A97F01A85E
:1040200004F07DFD21680222C9194864A97F01A816
:1040300004F075FD21680122C9198864A97F01A8CF
:10404000491C04F06CFD21681022C91908660B2177
:1040500001A804F064FD0721226809025118486094
:104060000422802101A804F05AFD21688919C86141
:10407000029ADC204243012101A8443204F04FFDA2
:10408000216889190862029AD8204243012101A8B7
:104090002C3204F044FD2168891948620198FEBD64
:1040A000580A0000800300208C060020704710B5DD
:1040B000C001000C00F0ECF9002010BDFEB572B696
:1040C0003F4D0823286801464030C2791A43C27127
:1040D00062B6002011276C46FF0182005218D219E7
:1040E000D26F52884300401CC0B2E2520328F4D37E
:1040F00072B6C8190021866E816662B6F00702D0DA
:1041000000200AF049FFB00702D501200AF044FF61
:10411000700702D502200AF03FFF300702D50320C6
:104120000AF03AFF002623E00D281AD2211D254A65
:104130008000125820469047002812D072B6286896
:10414000F7224030C1791140C17162B630E03A289F
:1041500007D21C49231D8000E8390A581946204619
:104160009047029829684018C019C06F21880180C3
:1041700071006846415AB00002902A688018C01940
:10418000C06F0288920892001418028808348A428C
:104190000ED0A27891070BD09107890F012901D188
:1041A00004460834A0788008C006E078CFD5BBE785
:1041B000761CF6B2032EDBD30AF0E8FDFEBD00004C
:1041C00080030020E031061070B50AF0F9FD124CB2
:1041D00011252068ED014019006F40210AF0AEFB67
:1041E00021684919C867486F40210AF0A7FB0926D2
:1041F000216836028A1910604819FF21806F8131C9
:104200000AF09CFB236808229919486003480021A2
:10421000181804F017FD70BD80030020E8080000A6
:10422000FEB506462A4814460068E322D2008518E7
:10423000C888032806D02346002202210420FEF766
:10424000A7F843E08968022268460D3104F0F6FCC5
:10425000326990052FD468460188172903D35C2062
:10426000405B172801D2172002E0814200D20846A5
:104270007080012040020243022032610190144804
:104280001B210068890141183788C97E768801237F
:10429000490710D51121C901083040182422C06FE8
:1042A000022108F027FA002805D08780C680014641
:1042B000019808F00BFAA06803260673A068294647
:1042C00002225C310D3004F0B9FCE6800020FEBD16
:1042D00080030020F7B590B000206A460D909082D0
:1042E0006A4AE3231268DB00D218CB880446022B0B
:1042F00008D0002218210420129BFEF749F8002064
:1043000013B0F0BD8B6800205E7B0A900B9088880C
:104310003032019209900027019808F079FD054696
:1043200020E028680890A9880998814219D1A968D5
:10433000022207A80D3104F081FC002F01D168464C
:10434000878B6846808B87420BD12946019808F0FD
:10435000ACFD002028600A98002811D00B98056059
:104360000B95089D002DDCD1002FD4D11298192176
:104370008068017301211298012EC18002D081E072
:104380000A95EDE702A90AA8FEF72FF8002879D0D0
:1043900069460A891821129BFDF7FAFF002671E091
:1043A00081680546022202A80D3104F047FC012E67
:1043B00066D16846008901F01FFB014668460EAAD7
:1043C000008902F095F90E9C1099204600F09AF8A9
:1043D0000D9055E02F68012E3FD1002F06D0B9680F
:1043E000022205A80D3104F029FC02E000206946F4
:1043F0008882A968022204A80F3104F01FFCE88813
:104400000D99401F80B20090208CA26948436946F4
:104410001018098A009A43180921284604F086FCDE
:104420002220005D012804D16846018A00980818FE
:10443000E08368460189808A81420ED0208C0D99E4
:10444000A269484310180021019000911098E38B55
:104450000188A28B022008F0EBFA0A9908680A90FA
:10446000002008600A99002900D10B9001212846FC
:1044700004F0F8FC69460889898A884202D13D46E1
:10448000002DA7D10A9800288AD139E7800300209F
:1044900000B508490968084A914209D14006010C53
:1044A00006483F22028181611121018000F022F83B
:1044B00000BD000014000020CCBCECFC000010404B
:1044C00000B5094A1268094B9A420BD1084A3F23AA
:1044D00013818008906106484030016033201080CD
:1044E00000F008F800BD000014000020CCBCECFC7B
:1044F000000010400248018AC907FCD07047000044
:104500000000104030B5024623239B5C0020012BA5
:104510001AD112890D4B9A4216D10D4A0523126801
:104520005B02D318A0329B69127B0AE045010C881C
:104530005D5B24052D05240D2D0DAC4204D0401CDF
:10454000C0B28242F2D8002030BD00000229000033
:1045500080030020F7B578480F460068E321C900C2
:104560004418F88888B0072804D2002206210420C5
:104570000A9B2AE0B968022268460D3104F05EFB0E
:10458000B968022201A80F3104F058FBB968022271
:1045900004A8113104F052FBF888C01F80B20390C8
:1045A00068460288808882420CD8002A0AD008987F
:1045B000002142880A9804F08BFD002808D045208D
:1045C0000BB0F0BD062101200A9BFDF7E1FEABE038
:1045D0000A98072180680834017301216846018127
:1045E0000594008801F008FA05007CD086E0684652
:1045F000008A0522D202904202D0521C904226D15B
:1046000068460088814278D329460B220831384613
:10461000039B04F021FC69466A8D098A8A426CD1A9
:104620000399022901D0102967D1002865D12A46B3
:104630002846296A28322030814202D06B6A1C3316
:1046400000E0134602A90A98FDF7B5FE55E02E4694
:104650002C6A2036B4424ED14FE06946A08B0988BF
:10466000884247D369468988884257D82320005D0D
:1046700001283FD120460899FFF744FF218CA26909
:10468000414351180B223846039B04F0E5FB06908A
:1046900008980122008821460005000DFEF798F9D0
:1046A00001466A462089128A904223D1002921D1ED
:1046B000E28B03998A421DD1069900291AD10899E3
:1046C0006A4649881289891A042927D322461B4938
:1046D0001C32884208D12068B04205D00089884247
:1046E00002D02468F7E719E023461C3302A90A9890
:1046F000FDF761FE2468B442AFD12D68059885426C
:104700000CD06846298D8088814207D808986A466F
:1047100040881289801A042800D368E76846008917
:10472000012803D90A99C880002049E76846028811
:1047300006210A200A9B48E7800300200328000086
:1047400010B50D4900050B680521490259188A6901
:104750000021000DA0331B7B0AE04C01145B2405F3
:10476000240D844202D14801801810BD491CC9B2F1
:104770008B42F2D8002010BD80030020FFB589B025
:10478000002405460794D0881646052804D0002248
:10479000042108460C9B20E0B168022208A80D31D4
:1047A00004F04CFAB168022268460F3104F046FA70
:1047B0006846028C008882420CD8002A0AD00A98E7
:1047C000002142880C9804F083FC002808D0452082
:1047D0000DB0F0BD042101200C9BFDF7D9FDB9E01F
:1047E0006846008C01F008F9060076D0083504957B
:1047F0000498864272D06946308D098C884230D345
:104800006946098888422CD8002C0AD101210791D9
:104810000C9805218068022401730C980799806820
:1048200041730A984088001B042857D30798012831
:1048300054D1201D81B23346283302220C9804F053
:1048400065FBA01D81B233462A330222A41C0C98BA
:1048500004F05CFB6946A41C308D0988A4B2884230
:1048600074D03746356A2037BD42C1D060E0694612
:10487000A88B098C88425AD369460988884265D832
:10488000002C36D02320415D0798814260D10A98E0
:104890004088001B042802D30799012904D012285C
:1048A00056D30798022853D1201D81B22B461C33C2
:1048B00002220C9804F02AFBA41C0798A4B2012839
:1048C0000DD0201D81B22B46083310220C9804F025
:1048D0001DFB2046103084B229E03DE036E0201D6B
:1048E00081B22B46083302220C9804F00FFBA01C67
:1048F000F1E72320415D07910C9805218068022291
:1049000001730C980799806841730C982946806858
:104910001C310E3004F092F9079901290CD02B4676
:104920000833102208210C9804F0F0FA14242D68A2
:10493000BD429CD136685BE70C982946806802220C
:104940000831103004F07AF90624F0E7002C03D087
:104950000C98C48000203BE76846028C04210A20A2
:104960000C9B3AE7830810B50A480021026805202D
:1049700040021018A0328069127B07E04C01045BF2
:10498000002C01D0994204D0491CC9B28A42F5D802
:10499000002010BD8003002070B50C460B4E810036
:1049A0000B4832680D1801232032D3772146284660
:1049B000FFF786FD28680021844201D1084600E007
:1049C000FB2032682032D17770BD000080030020C8
:1049D0000000041038B5184A14682246BA32AE34C2
:1049E000A378DD0701D001290AD05B070CD5012986
:1049F0000AD0217949070BD5E17A002905D007E0D3
:104A0000E07880210843E07038BD0121E1725080D8
:104A100020794106090FF7D07821084069460870CF
:104A2000002048706A460221422007F063FF207987
:104A300087210840207138BD8003002070470000A6
:104A4000FFB50C4678A103C995B0019100900021F3
:104A500008A801730321C90268464186012108A8FC
:104A6000734E017435681746AE3502F0C7F9002859
:104A700008D170493068401801F0BEFEA8780028BF
:104A800002D0462019B0F0BD0BA8159900F09AFA93
:104A90000028F7D1072010A90871012C05D0022C9D
:104AA0000AD0002C0ED04220ECE708A8017B102091
:104AB000014308A8017305E011A90BA800F091FAC1
:104AC0000028DFD110A8027901230CA9284600F0A4
:104AD000CDFE00287ED102222946189804F0AEF8B7
:104AE00029886846818115214902018207840126AF
:104AF00086734E2108A881700024C47006710721B6
:104B00004171867103A902A800F06AFC002861D1F6
:104B1000022202A91E9804F091F8082F02D26846DA
:104B2000478502E008206946488569460C850B46A2
:104B300028880AAA098901F0C3FB00286DD13E49E3
:104B4000684601820227078408A8847103A902A885
:104B500000F046FC002860D1022202A91F9804F050
:104B60006DF868460470694644704F850B46288886
:104B70000AAA098901F0A4FB00284ED108A8007BED
:104B8000C00723D02C496846C91C01820821018432
:104B900008A88770047103A902A800F021FC00286E
:104BA0003BD1FF216846C1718171C1708170417034
:104BB0000170447104716946082048850B462888B5
:104BC0000AAA098901F07CFB002826D108A8007BED
:104BD000800600E021E022D52988684681811649B7
:104BE000A53101820684867308A88770C470047199
:104BF00007214171847103A902A800F0F1FB00288C
:104C00000BD169460E700C854E850B4628880AAA82
:104C1000098901F055FB002801D0472032E708A898
:104C2000007BA87000202DE7626C75656E726721AD
:104C300080030020DE060000012A00000348002156
:104C40000068AE30C17081707047000080030020A2
:104C500038B50246174801240068AE30022A1FD03A
:104C6000052A03D0072A07D00B2A20D10846097944
:104C70004088FFF7AFFE1AE000790024020600D555
:104C80000124820703D1C20601D480060FD508464D
:104C900000216A461170694607F06AFA044606E088
:104CA0008178490703D50179FB2211400171204623
:104CB00038BD000080030020704700000FB410B51D
:104CC000079C01282DD1684680891749884210D158
:104CD00003A80FC800F0AAF900281DD105F0C2FBF7
:104CE000FA281ED001281CD92078F3210840207012
:104CF00017E00D49491C884208D0C91E884205D0DA
:104D0000491C884202D0C91C88420AD103AC0FCC8E
:104D100000F08CF9002800D0632010BC08BC04B05F
:104D200018470020F9E70000022A0000FFB50746F7
:104D300071480D4604688FB0AE34A1781E46C8068F
:104D400002D5E078C0067DD4880607D5E0788006D5
:104D5000800F03D0022F01D0002E73D08806800F61
:104D600006D0022F08D0032F06D0002E6AD003E011
:104D7000012F01D0002FF8D1880603D4002D01D0D7
:104D8000012D5FD1002E06D130200140384602F0BF
:104D90009FFC002856D1119900200870A078800649
:104DA000800F7DD00CA908A802F044FF07900DA940
:104DB0000AA802F06BFF06900798002802D0069818
:104DC000002801D1012E58D1022F04A807D001F0EC
:104DD000B5FC002E3CD00798002803D012E005F067
:104DE00043FFF6E7444F45483B68062208A91818D8
:104DF00003F020FF0028386808D04030417E490881
:104E0000490041760698002805D014E04030417EE4
:104E100001221143F5E7384F38483B6806220AA9BA
:104E2000181803F007FF002838680CD04030417E86
:104E3000FD22114041760798002809D006980028E5
:104E400006D01AE043E04030417E02221143F1E7F0
:104E5000294806220368294804A9181803F0EEFE21
:104E6000052069460873002E02D1084606F0C8FDE9
:104E700023480290684606F075FDA078800611D59B
:104E80001198032101702079C10603D5002D01D0AE
:104E9000022D1CD1800605D5012D03D0032D00E085
:104EA00018E014D1A078C00623D51199012008700C
:104EB0002079C10601D5002D09D1810601D5012D2A
:104EC00005D1000615D5002D13D0012D11D042209B
:104ED00013B0F0BD012F0CD1002E0AD106480622D6
:104EE00003680648611D181803F0A8FE11990120F7
:104EF00008700020ECE7000080030020DE060000C0
:104F0000A0BB0D003EB509F043FD044609F0CEFDFF
:104F1000082C01D1082813D00A480B490068062242
:104F20004118684603F08AFE68464079400601D57C
:104F3000022000E00320012302AA0021FFF7F6FE71
:104F40003EBD000080030020DE0600001FB50E48B5
:104F50000468AE34E078010612D5A178C9070CD0F8
:104F6000800708D5042069460873684606F048FDA6
:104F7000022007F065FC0020E0704006400EE07063
:104F800000F02EF81FBD000080030020F0B58DB0AA
:104F90000C4616A9E0C90021089109910A910B91CC
:104FA0001599049105A9E0C112A962C90093019164
:104FB00013460146039602952246012007F09AF90E
:104FC0000DB0F0BD0A07920F01D0422070478A074A
:104FD000FBD002788907890F0A43027000207047CE
:104FE000704742207047000010B50446022000F0D0
:104FF00051F80D4800210268052040021018A03227
:105000008369107B05E04A019A5A002A04D0491CA2
:10501000C9B28842F7D810BD48011C52C0180269B5
:1050200004210A43026110BD800300201FB582B035
:10503000002401F0CBFB694601F06AFB009A684648
:10504000116A0089203209E023235B5C012B04D123
:105050000B89834201D1641CE4B209689142F3D107
:10506000204606B010BD000010B5044601460420DD
:1050700002F0BEF9002809D00548E3210068C90004
:10508000401821463C3007F0F3FE432010BD0000DD
:105090008003002004490A683B21490151180A781D
:1050A00002430A70704700008003002000B51138E9
:1050B000C0B2FFF757FC002804D001220169520555
:1050C0001143016100BD012189078A6A02438A6296
:1050D00070471CB50121084606F0C8FA684600F082
:1050E000B3F880200090062069460871002088717E
:1050F00001204871684600F03DF80021802000F052
:10510000A9F81CBD012292070029D16901D00143F1
:1051100000E08143D16170470CC80121890708383C
:10512000012B0B690BD093430B618268012A08D0D5
:10513000002A0AD04A69006802434A617047134353
:10514000F2E78A6903681A4302E08A6903689A43AE
:105150008A614A6900688243EFE701218907496A49
:10516000014201D0012070470020704710B5FDF7C3
:1051700003FD10BDF0B5027901239B070168002AE9
:1051800002D0062A03D006E05C688C4302E05C682B
:1051900000220C435C6000210F240568CD40ED0720
:1051A000ED0F37D0082909D2DE6A8D002746AF40BF
:1051B000BE431746AF403E43DE622BE00D46083D3E
:1051C000082D0AD28D002646203D1F6BAE40B74306
:1051D0001646AE4037431F631CE00D46103D082DB8
:1051E0000AD28D002646403D5F6BAE40B74316465F
:1051F000AE4037435F630DE017290BD9114E8D0088
:105200002746603D368BAF40BE431746AF400D4D3D
:105210003E432E83491CC9B21A29BED341790129C4
:10522000D968026809D09143D960817901299968C8
:10523000006804D081439960F0BD1143F4E7014355
:10524000F9E7000020000040002101600171817138
:1052500041717047012902D003490860704701215C
:105260008907C86370470000400000400348006899
:10527000AE3080788006800F7047000080030020E9
:10528000F3B597B00D8848880590081D1DC80DAE70
:105290001DC68C8ACE8A087E1390C8692031019081
:1052A000087800904878049088780390C878029035
:1052B0000F7900F047FD002817D1012040028442F9
:1052C0005FD8B4425DD8002F01D1B44259D114A99E
:1052D000284601F01DFA002806D115AA1499059850
:1052E00001F006FA002802D0602019B0F0BD149D2C
:1052F00011A92846183003F07FF910A880880028EB
:1053000010D0284612A9203003F076F910A883881F
:1053100000892A8D1818696A10188A8B904203D167
:105320006120E2E74820E0E715982C4B02899A4279
:1053300027D12322125C012A23D10068006816902D
:10534000139801281FD16846808E29221202801AE4
:10535000030006F05CFF0604180404070A18022C78
:105360000FD110E0072C0CD10DE0042C09D3E0077D
:1053700007D1012F07D1A64203D3042E01D3F00792
:1053800001D04220B1E702980B90039B049A0A9344
:1053900009920098019A0C97089006960594079236
:1053A0000DA81DC8019002A81CC013980B460090C0
:1053B0002A461699179800F0AFF9002895D168464B
:1053C0000649808EFF31884205D017980188002059
:1053D0000A4601F0A7FD002087E70000032800002F
:1053E000F3B5A5B008881A9088780C461190102261
:1053F000091D13A8FCF7E8FAA08A1090A17D684661
:105400000172E07D0F90207E2090677EA07E1F902D
:10541000002006460146129020A801810F20BB4CB7
:105420002390E3212068C9004018199000F08AFCFD
:1054300000280BD101211098490288425FD821A988
:105440001A9801F065F9002802D0602027B0F0BD5D
:105450002198179001F0BAF91A9988420CD102A844
:1054600001901698009013AD0ECD1198FFF726FC11
:10547000002801D06320E9E76846017A8806800F9A
:1054800005D0012012902068A030007B4600C8079C
:1054900003D01298401CB61C1290080603D512982F
:1054A000401CB61C129017980DA918301D9003F0DF
:1054B000A3F86846129C808EA41CA04237D317988C
:1054C0000EA92030019003F097F86846018F00295B
:1054D0000DD01798179A6B46406A9B8E128D5918FB
:1054E000808B5118081AA04201D26120AEE71798AC
:1054F000846911982568012803D0022803D042202E
:10550000A4E7052000E01320E0832A4639460F98DF
:10551000FEF788F9422899D0199FE28B4037788BA3
:10552000398B411A109810188019814201DA4820ED
:105530008CE70EA9019803F05FF86846008F0028F9
:10554000179802D0406A808B00E0008D2599401C9E
:105550000880259801210088A083259802220088D0
:10556000401CA8836A482081204620301790C170D3
:105570000021817081711998398B406D40186946FE
:10558000A061097A0170A06929461C31401C03F012
:1055900055FB11980128A0697ED0102213A9C01CC8
:1055A00003F04CFB2846102213A9083003F046FBF9
:1055B000388B133038832E4620361198F0701098AF
:1055C000E8831F98B0701098208410982884199848
:1055D000398B406D4018A8610021109A03F032FB0E
:1055E000398B10980818388317990120087117997A
:1055F0000020487130716846007A810701D5012189
:10560000317101070227002902DA317939433171FA
:10561000410703D53179042211433171400603D586
:1056200030790821084330710F9870712098B0715B
:1056300021461D9803F009F82146019802F0E6FF83
:1056400029461D9803F001F82946019802F0DEFF73
:105650001298002841D068461A998181A18BC18196
:1056600007844784012408A8047122A80A9008A886
:105670008473239941730F993820014008A801735E
:105680000721C173002505746846007AC00708D059
:1056900020486946088200E02AE003A924A8FFF711
:1056A000EFFD6846007A8006800F07D019486946EA
:1056B000401E088203A924A8FFF7E2FD6846007A8D
:1056C00000060AD5292109026846018208A8447308
:1056D000057303A924A8FFF7D3FD25980188129824
:1056E000401C081882B2002001F01CFC0020ADE62E
:1056F000022213A9C01C03F0A1FA2846022213A912
:10570000083003F09BFA388B401D53E780030020DC
:105710000328000003290000FFB55248E322006877
:1057200087B0D2008218069210AA109B0126169FFD
:105730009288012B04D14C4B9A4201D1A030067BB8
:10574000069D34464035688B2B8B7C43C31A0998E1
:1057500020300390A34222DA48200BB0F0BD232072
:10576000405C012819D108896C46208098420CD0F1
:105770003D4C641EA04208D0641CA04205D0641CAD
:10578000A04202D0A41CA04207D1374CFF3CA0424B
:1057900001D0904201D16220DFE7096801E02923AE
:1057A0001B0203988142DAD109981B9984691898E1
:1057B0002246FEF737F84228CFD01C98012804D1A2
:1057C0001598874201D24220C7E71598E08320460A
:1057D00020301C990590817027840A98808B401C8A
:1057E000A0831098012814D02046102211A9083057
:1057F00003F024FA05991098C8700698298B406D1B
:105800004018A061298B384670430818288300256A
:105810000FE011A80FC808340FC4183CEAE7284667
:10582000A16978430818159A179903F007FA6D1CB7
:10583000EDB2B542F3D305991898487105991998B6
:10584000087105991A98887109982146183002F054
:10585000FCFE2146039802F0D9FE0798A18B018037
:1058600000207AE78003002002290000FFB58FB0F6
:1058700014460E78102205A8891CFCF7A5F850489C
:10588000E3210068C900451800F05CFA00281ED129
:10589000002C57D0012E09D16846808A4949884298
:1058A00004D12846A968083081424BD128461030DF
:1058B00029690390814209D00AA9284602F09CFE7A
:1058C0006846018D601E0D90814202D2482013B0BF
:1058D000F0BD284608300CA9049002F08DFE684601
:1058E000008E002814D0EF680AA93846183002F05C
:1058F00083FE384620300CA902F07EFE6846398DC2
:10590000008D09186846008E401C081887B200E018
:10591000012701200004C01BA04201D26120D6E76C
:105920002C69286801901298012802D0022803D01F
:1059300008E00520C00200E023486085012E03D066
:10594000022E05D04220C2E720460830022202E0A3
:1059500020460830102205A903F070F92046314690
:105960002030064601730F9821460780278503984B
:1059700002F06BFE2146049802F048FE27461837D5
:10598000E7616662A76126620D9884B20BE0284643
:10599000019902F05AFE3846019902F037FE286854
:1059A000641EA4B20190002CF1D10F9801880D98CB
:1059B000081882B2002001F0B5FA002087E7000045
:1059C0008003002001180000012800000246094859
:1059D000E3210068C90041188868083103E0038D9D
:1059E000934202D200688842F9D1884200D1002057
:1059F0007047000080030020034610B50F48E321E4
:105A00000068C90041188868083103E0148D9C4281
:105A100003D8104602688A42F8D18A420CD1018D1F
:105A2000994209D20146026A20318A4203D0416A72
:105A3000898B994200D2002010BD00008003002015
:105A4000024610B50B4812050168052040020818EF
:105A500083690020120DA031097B07E044011C5B23
:105A60002405240D944203D0401CC0B28142F5D8D5
:105A700010BD000080030020F7B5054617460198C9
:105A800007F0C6F92E050446360D0CE0A0882568FF
:105A9000B04207D12146019807F007FA394620465F
:105AA00003F0E0F92C46002CF0D1FEBDF0B58BB030
:105AB000002064490290E3200A68C000141872B6FE
:105AC00010464030C57902231D43C57162B6254694
:105AD0004035287AC0077DD00520400210180026E6
:105AE00087694AE071017A5A002A44D0C91906919F
:105AF00009694A021FD48A0227D502210491069916
:105B0000012309880905090D03911B218901411809
:105B1000C97E89070FD51121C901083040182322F9
:105B2000C06F022106F0E6FD010004D0039A8A80CE
:105B3000049806F0CBFD069800880090069800F0C7
:105B400083F8009804F072FE15E0480713D5069814
:105B500000880005000D04F045FE002805D10698D8
:105B600000880005000DFDF769FE0699042009690B
:105B7000814306980161761CF6B23248AC21006878
:105B8000095CB142AED803F0B5FC2046243006468D
:105B900007F084F9012802D0012003F0ADFB204674
:105BA000183007F07BF9012802D0002003F0A4FB95
:105BB0003C34204607F072F901280FD002A9204694
:105BC00007F095F90420029901F012FC0028F0D0AA
:105BD000204600E034E0029907F037F9287A000601
:105BE0002ED5304607F05AF9012829D1002003F0BC
:105BF000B9F8A98B23314909491CC9B2FBF7BAFE90
:105C000000281DD00F4D044628681121C901083015
:105C10004018422601233822C06F314606F06AFD43
:105C200001000DD000228A80CC80304606F04EFD67
:105C30003B212A68490151180A78802082430A7062
:105C40000BB0F0BD80030020F0B504463C48E321D2
:105C50000068C9004518218A85B089041AD5022137
:105C600004911B2189014118497F4126278801237E
:105C7000C9070FD01121C901083040183122C06F67
:105C8000022106F037FD010004D08F808E71049848
:105C900006F01CFD2946208801221831FFF7ECFE92
:105CA0002946208801223031FFF7E6FE2946208868
:105CB00001222431FFF7E0FE2946208800223C31F2
:105CC000FFF7DAFE20880005000DFFF7B9FE85001A
:105CD000294611316846017305F092FE29461231BA
:105CE0006846017305F08CFE29461331684601733E
:105CF00005F086FE68461435057305F081FE2088A0
:105D000000F028FA208801050D48090D02680520D9
:105D100040021018828F914201D100218187E069F1
:105D2000002802D0012103F09DF820220021204606
:105D3000A56802F087FF1720A560608005B0F0BD60
:105D40008003002010B50B48E3210068C900441807
:105D50004034207AC00709D0002003F003F8217AEC
:105D6000890701D5002803D0002010BD472010BDB1
:105D7000642010BD80030020F0B55FA099B00068DA
:105D80005E491590E3220868D20084180522520269
:105D9000821892692546403514922A7AD20702D099
:105DA000622019B0F0BDAA8B01235B029A4201D98F
:105DB000AB8303E0172A01D21722AA83149AA030DA
:105DC0001392067B0DE0761EF6B2139871010F1840
:105DD000B8680F9038462022002102F033FF0F9858
:105DE000B860002EEFD120460830E0606460A0600B
:105DF00024600830139060612061FF220021083088
:105E000007F01BF82046FF220021243007F015F888
:105E10002046AA7F0021303007F00FF82046FF22ED
:105E200000213C3007F009F800222A7210461721A1
:105E3000324B05E0149E4701BE19401C7180C0B270
:105E40001E68A036367B8642F4D8002028832F8C2B
:105E5000688C0026149008E02820E16C7043091833
:105E6000204602F0D3FB761CB6B2BE42F4D3002625
:105E700008E03020216D70430918139802F0C6FB2A
:105E8000761CB6B214988642F3D30120FFF702F9CC
:105E90000124684604701A49418023460422694659
:105EA0000CA8FFF7E3FC002822D16846018E81820E
:105EB00014490183042606858475202108A881726F
:105EC0000024C472047307214173847305A90DA8CB
:105ED000FFF786FA00280BD1684604874687818E33
:105EE00015AB0EAA008E00F0EBF9002800D158E7A0
:105EF00000202872472054E70000FFFF80030020A5
:105F000001180000052A0000F8B504467D480E4639
:105F10000068E321C90047184820C05DC0077BD056
:105F2000B088FEF70DFC0546012C02D0002C75D080
:105F3000E6E0002D0CD0286941074AD4B268F18808
:105F4000147B0029F4D062060CD56888884201D2FF
:105F50000121B2E0D22C01D0522CF9D13846314681
:105F600018303FE0A106890E1E293ED81E2C21D1F3
:105F700001071FD50821884328612988012005F0E1
:105F800011FB0121304602F06DFF5E4811210068CF
:105F9000C9010830401842242D8801233922C06FDE
:105FA000214606F0A7FB010003D08D80204606F0B5
:105FB0008DFBA5E0E1070AD01D2C10D01B2C0ED0C4
:105FC000410529D4012189020843EE6192E0C0060F
:105FD00001D54520F8BD2988002005F0D1FA3846C2
:105FE0003146243006F044FF8AE029882022002030
:105FF00002F0DCFE05000FD00121304602F032FF36
:106000002B46002221460620FCF7C2F92846FFF75E
:106010002BF875E000E001E04120F8BDB068047B9A
:106020001D2C3AD01B2C41D00021304602F01AFF23
:10603000032C46D0052C44D0072C42D0092C40D04C
:106040000B2C3ED00D2C3CD00F2C3AD0112C38D03C
:10605000132C36D0172C34D0192C32D0012C30D040
:10606000022C35D0042C33D0062C31D0082C2FD064
:106070000A2C2DD00C2C2BD00E2C29D0102C27D054
:10608000122C25D0162C23D0182C21D0522C1FD006
:10609000D22C1DD01E2C2FD032E0002D03D0298809
:1060A000012005F06DFA3146022001E03146012061
:1060B00005F0DEF9002823D00021304602F0D2FEA0
:1060C0001EE029691020814329612988002015E0FC
:1060D0002869402188432861010511D5FF2101313C
:1060E000084328612988022005F04AFA012128691D
:1060F000C9028843286103E02988032005F052FA89
:106100000020F8BD8003002010B5114AE323126877
:10611000DB00D2184032127AD20706D002280AD009
:10612000052804D00B2810D101E0412010BD48887B
:10613000FEF75AFF09E04888FEF702FB002804D06A
:1061400001220169920511430161002010BD000088
:1061500080030020F1B5FFB085B0472001900020FA
:10616000694608805348E3210068C90047188498AD
:10617000FEF7E6FA0290002874D0B96808374FE0BD
:10618000684600880D4604AC20186B460222283170
:106190000CF02DFE68460088294620186B46012227
:1061A0002C310CF024FE2E462036307B6946012827
:1061B000098804A809D040186B46102229460831E6
:1061C0000CF015FE01902C6A27E040186B46022265
:1061D000F4E76946098804A8401821466B46022264
:1061E0001C310CF004FE6946098804A840182146B9
:1061F0006B46012223310CF0FAFD2320005D694635
:106200000128098804A830D0401821466B46102286
:1062100008310CF0ECFD01902468B442D9D1296812
:10622000B942ADD1019800281CD168460088810789
:106230000AD0214A011D11406A4611800A1A04A998
:1062400008180B2102F0FEFC0298008804F0CAFA3C
:10625000002807D1849869460005000D04AA098822
:1062600004F022F97FB006B0F0BD401821466B461D
:10627000022208310CF0BBFD019020890F498842B1
:10628000CAD120460299FEF73DF94000A16903906A
:106290006A460918128804A880186B4602220CF07E
:1062A000A6FD0190A169039802220818002102F0BE
:1062B000C9FCB1E780030020FCFF000002290000B8
:1062C000F0B5074617480E4600683B2149014018C3
:1062D000007885B01D461446C00706D003A938468D
:1062E00000F016FA00280AD102E0472005B0F0BD00
:1062F00004AA3046039900F0FBF9002801D0602081
:10630000F4E70499228860880968002A00D0088C84
:1063100032466E4631C603233946002000F004F8A9
:10632000E4E7000080030020FFB5002099B0239A25
:106330000B90129005461490064615901C46DB48BB
:106340000B460068E321C900411803910021229FF8
:10635000089109915188069111880A913B214901C0
:1063600040180078C00706D00FA9184600F0D0F9F1
:1063700000280AD102E047201DB0F0BD10AA0F99F5
:106380001B9800F0B5F9002801D06020F4E71998B7
:10639000002803D0600701D5012000E00020139001
:1063A000A007800F1C90109817902030C07801280B
:1063B00040D11798BE4B01899942F9D11798069997
:1063C00004680A98228C4118914233D82046203024
:1063D00016908078012816D0E08B04901798806979
:1063E00000788006800F7DD0039840301890007AA6
:1063F000800777D51C980028F5D0AD4F0F99FF374F
:106400002031206814E0BA4214D3B942DDD8049791
:10641000E4E70389A64A934203D12322125C012AAE
:1064200008D0BB4203D12322125C012A03D00068AA
:106430008842EED134E105900028FBD09B4805212D
:1064400002684902511889690027009162E07801C9
:1064500000990390085A01055AD01999002901D0D2
:10646000884255D105997A008B69511C595C9A5C18
:106470000902891889B20D91890749D0022205992C
:10648000FCF7A6FA002804D01998002840D065200F
:1064900072E7002008A9C8551C98C00718D01798A3
:1064A00080690078C00613D50D98C00710D0012070
:1064B000C8550543009A039880184088159A904261
:1064C00006D91590009A0398105A0005000D1490F3
:1064D0001C9880071CD5179880690078800617D50E
:1064E0000D9800E084E0800712D50220CA5D0543C4
:1064F0000243CA550099039840184088159988426C
:1065000006D9159000990398085A0005000D1490BB
:106510007F1CFFB265480068A030037BBB4296D861
:10652000002D65D01898007A00065FD45F48016896
:10653000052040020818816900201BE042018E5AA4
:10654000360515D0AE070BD556183669B7070DD4EA
:1065500008AF3F5CBF0703D5360701D546200BE7E0
:10656000EE0705D05218127CD20701D0432003E772
:10657000401CC0B28342E1D81598C01E86B2049870
:10658000864200D90646A8070FD52022002014997C
:1065900002F00CFC129000287DD0F01C82B2002189
:1065A000129802F08EFD002811D1E80720D0202299
:1065B0000020149902F0FAFB0B90002807D0F01C81
:1065C00082B200210B9802F07CFD002810D08020C0
:1065D000FEF760FD1298002802D0002102F042FC74
:1065E0000B98002802D0002102F03CFC6420C3E696
:1065F000A1690A98069A0818249902F01FFB1698B8
:106600008078012801D10498E083002D46D0274BE3
:1066100005201968400208188169002008AA0CE0CA
:106620004301CF5A3F0506D05F18BC463B69175C53
:106630003B4367463B61401CC0B21C4B1B68A03308
:106640001B7B8342ECD8A8070DD512980090F01C54
:1066500082B221461C310220A369FDF769F80220AD
:10666000129904F005FFE80718D00B980090F61C6B
:106670002146B2B21C310120A369FDF759F81398E5
:10668000002805D00B988021C07C08430B99C87462
:1066900001200B9900E005E004F0EAFE00206BE623
:1066A000422069E68020FEF7F5FC9FE7800300208A
:1066B00003280000F0B58468083015E0258D8D4270
:1066C00003D1146018600120F0BD26461C602036FE
:1066D000256A06E0AF8B8F4202D102201560F0BD23
:1066E0002D68B542F6D124688442E7D10020F0BD80
:1066F00010B50B6A203106E09C8B844202D1002049
:10670000136010BD1B688B42F6D1412010BD000004
:1067100010B5094AE3231268DB00D21893680832E7
:1067200006E01C8D844202D100200B6010BD1B6866
:106730009342F6D1412010BD80030020F8B5204ED1
:1067400004463568AE3500F09BFA2070000A607090
:1067500000F096FAA070000AE07000F091FAC2B260
:106760008004830E2271002163710846275C401C5F
:106770007918C0B289B20628F8D30029E3D020786E
:10678000FF280CD16078FF2809D1A078FF2806D116
:10679000E078FF2803D1FF2A01D1FF2BD3D00622B6
:1067A000691D204602F046FA0028CCD03168062246
:1067B0002046783102F03EFA0028C4D0F8BD00002F
:1067C000800300200120C0027047000002480068DA
:1067D000AE3000887047000080030020002803D0FE
:1067E000012803D0022804D008207047012080032C
:1067F000704701207047000010B503490622096860
:10680000B33102F01BFA10BD80030020F7B5164625
:1068100000241CE0009811490019401881080198D3
:106820008900001942780578120215438278C078F1
:106830001204000602430948154340420F18294636
:106840003846FDF73DFE3868854204D1241DB44228
:10685000E0D30020FEBDFB20FEBD00000000FCEFE9
:10686000F0B50E460746002407E03D1900F008FA8F
:106870002870000A6870A41CE4B2B442F5D3F0BDDD
:106880000F4910B528390E4BCA691206120F427013
:10689000C9690907090F817019680A4C0123416011
:1068A000A14202D10221017000E00370002A00D150
:1068B00043700549898A491C8900816010BD000028
:1068C0002800904041A000020000104010B50128AF
:1068D00018D8072916D80C4A12681346203318779F
:1068E00059778007C906000E090E01430020074BA7
:1068F000A03204E08401E418A172401CC0B2147BF1
:106900008442F7D8002010BD800300200001002041
:10691000074A914202DC5242914200DA1146FF22BC
:10692000993251430A1251180A1451180818704725
:10693000FFFF4F00401AC01081004018001270473E
:1069400010B50920C00600690002000A05F084F8AD
:1069500010BD70B50D460446FFF7F2FF2946FFF75C
:10696000D7FF0146204600F001F870BD1FB56A460A
:106970003A3010736846029105F006F8002800D0FE
:10698000012004B010BD7047F0B5444F044638688C
:1069900085B0783016460D46002C19D0062C11D043
:1069A000082C0CD0182C0AD0282C0BD02A2C09D05B
:1069B0002C2C0AD02E2C0BD0D02C42D043E0102D02
:1069C00008D040E0022D05D03DE0012D02D03AE094
:1069D000062D38D10A460019314602F02FF92C2C29
:1069E00028D13078002825D007F036FF012824D0A0
:1069F0001B201F304009401C41004118012002F0BB
:106A00009FF907F029FF012819D01B201F304009EA
:106A10004100411822484078401AC01EC1B20020EF
:106A200002F08EF938684022403001781143F92293
:106A300011400170002005B0F0BDFB20D9E7FB201C
:106A4000E4E7012D04D007F007FF012804D007E098
:106A5000107804F0A8F8EEE7D12C01D1082D01D070
:106A60001220E8E702223146684602F0E7F80222E7
:106A7000B11C01A802F0E2F80222311D02A802F0C6
:106A8000DDF80222B11D03A802F0D8F86846838918
:106A900002898188008809F0C0FFCCE780030020CC
:106AA000AC06002070B51A4C1B252068AD014119B9
:106AB0000026184B0E720622FF21C01802F0C2F801
:106AC000206820214019C673017407F0C5FE012813
:106AD0001CD01F2021680F4B4919487420680933C6
:106AE00007220021C01802F0ADF80A4B20681033CD
:106AF0000522FF21C01802F0A5F8064B20681B33C1
:106B0000FF220021C01806F098F970BD5F20E1E770
:106B100080030020C906000010B51846012A01D9DB
:106B200080231943D3B20A465F2104F063FB10BDF2
:106B300038B50C00054605D0402C03D00D490EA0F9
:106B400000F080F86B4601222221FFF7E5FF0028C4
:106B50000ED168460178BF2001402143684601708C
:106B60006B4601222221284600F064F8002800D05C
:106B7000012038BD390300002E2E5C2E2E5C2E2EF7
:106B80005C2E2E5C2E2E5C4C6962726172795C53B5
:106B9000444B5F4576616C5F426C75654E52473180
:106BA0005C7372635C4854533232312E63000000D0
:106BB00038B50C00054605D0012C03D00E490FA0B6
:106BC00000F040F86B4601222021FFF7A5FF0028C6
:106BD0000FD1694608786B464106490EE00108432B
:106BE0006946087001222021284600F023F8002879
:106BF00000D0012038BD0000610200002E2E5C2E66
:106C00002E5C2E2E5C2E2E5C2E2E5C4C69627261E8
:106C100072795C53444B5F4576616C5F426C75657D
:106C20004E5247315C7372635C4854533232312E9A
:106C3000630000001846D3B210B50A465F2104F085
:106C40003FFB10BD0A46014601A005F0C3FAFEE76E
:106C500057726F6E6720706172616D6574657273D3
:106C60002076616C75653A2066696C652025732015
:106C70006F6E206C696E652025640D0A00000000AF
:106C800000210B200007026852070DD5026804237B
:106C90009A430260026808231A43026004E0491C18
:106CA000052901DD0020704742689207F7D5416849
:106CB000C907FCD0806880B2704710B5FFF7E0FFCD
:106CC0000446FFF7DDFF0004201810BDFEE7704703
:106CD000704710B50A888B884C881A43CB886400AB
:106CE00023431A430B8949891A43C9030A43C260E3
:106CF00010BD8163704701747047016880221143A1
:106D000001607047006B084000D001207047406967
:106D10000007800F7047000070B5044600680D46FC
:106D200040084000206020680321490388436979B6
:106D30008907490C08432060687922494000085AB5
:106D40002968214A4843101A204A3026914209D81E
:106D50004900FAF70FFE2168B143216061683203F0
:106D600089B20EE01A4A91420DD84A008918FAF702
:106D700001FE2168B143103121606168012289B2AE
:106D80005204891861606168EA88890A890211439E
:106D90006160218D20852068062188432979890733
:106DA000490F08432060297A08200129216806D06C
:106DB00081432160206801210843206070BD0143A8
:106DC000F7E70000D40200200024F400A0860100B0
:106DD000801A0600007E704703490160002101719E
:106DE0004171C1800172704788130000006800067D
:106DF00001D501207047022070470000F0B5454CD6
:106E0000052526686D027019406C0027416B4248C9
:106E1000AE368DB0814242D006216846FFF720FD94
:106E200069464879C02108436946487120680622AE
:106E30004019406C2430FFF7E9FC0746102105A8F3
:106E4000FFF70EFD206810224019406C05A9001DB7
:106E5000FFF7DCFC0743102109A8FFF701FD2068BC
:106E600010224019406C09A91430FFF7CFFC0146ED
:106E7000394313D1206829494019406C264F4018E6
:106E8000800881002648081839460490FDF718FB51
:106E900004980068B84201D1002700E0FB2722686F
:106EA0005019406CA6322430019006200146009013
:106EB000002008F07AFA002802D12068A63001905C
:106EC000701D009A019901F0B9FE22681026314622
:106ED0000020803208F069FA002807D02068324686
:106EE0004119496C8030091D01F0A8FE2268314625
:106EF0000020903208F059FA002807D02068324666
:106F00004119496C9030143101F098FE38460DB0AB
:106F1000F0BD000080030020AAAAAAAA3400FCEF5A
:106F20000000041030B50F4BE3251B68ED005B1922
:106F3000403304461B7A412085B09B0710D56B4631
:106F40009981DA81002018820420588203AA04A9BA
:106F50006D4607C502231A4601212046FFF7E4F9D2
:106F600005B030BD8003002008B50021084609F0B7
:106F700042FE0121002009F001FF694608706946C0
:106F8000002009F0EEFE684600780028F7D10021C5
:106F9000084609F0AEFE0121002009F0C2FE0121E1
:106FA000002009F08CFD0321002009F051FE012191
:106FB000002009F0BBFD0121002009F02EFF012176
:106FC000002009F001FE0321002009F0F7FE032153
:106FD000002009F0CAFD0121002009F006FF06216A
:106FE000002009F0D9FD0121002009F087FD08BD2E
:106FF00030B5012187B0084604F038FB002469460B
:107000000C75022048750120887505A801F094FDD3
:107010006846FEF719F969460C7101254C716D033C
:1070200000958C716846FEF7A5F8039402A80295B6
:107030000494FEF771F800212846FEF763F807B0C4
:1070400030BD024600200146535C002B00D00120D9
:10705000491CC9B20629F7D37047000002480068EE
:107060002030C07F704700008003002070B50E46BE
:10707000054601462022002001F098FE040023D09E
:10708000284600F059F8050027D02879B04224D1CD
:10709000A87880071FD4A06801210173A06800218F
:1070A0004673A06802268673A068C173A068017445
:1070B000A06841740620E0802146052000F098F980
:1070C000002803D0412509E064250BE0A87830436F
:1070D000A870002506E0462500E042250021204654
:1070E00001F0C0FE284670BD70B514460D4600285C
:1070F0000BD11146284603F01DFF21462846FFF715
:1071000003F82146284600F0A3FA70BD70B5054685
:107110000C46002000F010F800280BD02905090DBE
:10712000018000218170002C01D108218170012192
:107130000171C17070BD000030B502460A481123CC
:107140000068DB010021C318A030047B07E0586E03
:107150000D0140190588954204D0491CC9B28C42E2
:10716000F5D8002030BD00008003002030B50A496A
:10717000112309680246DB010020CB18A031097BEE
:1071800007E05C6E050164192488944203D0401C1A
:10719000C0B28142F5D830BD800300208068017AFA
:1071A000407A0002081880B27047000070B50023D2
:1071B000134A1DE01125ED0140191901466E002406
:1071C000C81C345410684019466E081D34541068A9
:1071D0004019406E445210684019466E0846083007
:1071E000345210680C314019406E5B1C4450DBB2C5
:1071F0001068AC21095C9942DCD8002070BD000009
:107200008003002010B5024688680C46817AC07A57
:107210000002081881B2E088001FE080042909D02C
:1072200005290CD006290FD00121204601F01AFEB5
:10723000002010BD21461046FEF766FE08E02146FC
:10724000104600F02BF903E02146104603F0F8FD4C
:107250000028EED0E188091DE18010BDF3B581B0B2
:107260000D4600268888FFF767FF07002FD03C46B1
:10727000287B08340228F8682ED0002834D0E8880B
:10728000218840182080284601F066FD61688A68E0
:107290000146104601F012FA0121284601F0E2FDF4
:1072A0000120616801F018FD6068FFF777FF001D9D
:1072B000218880B281421FD881421BD16168C88079
:1072C00061680198FFF79EFF06000FD017E00121CB
:1072D000284601F0C7FD12E0002801D04526E3E76B
